:020000040800F2
:10000000684800201D020008250200082702000899
:10001000290200082B0200082D0200080000000041
:100020000000000000000000000000004102000885
:100030003102000800000000D9020008E9020008AF
:1000400037020008370200083702000837020008AC
:10005000370200083702000837020008370200089C
:10006000370200083702000837020008370200088C
:10007000370200083702000837020008370200087C
:1000800037020008370200083702000800000000AD
:10009000000000000000000000000000370200081F
:1000A000370200083702000837020008370200084C
:1000B000370200083702000837020008370200083C
:1000C000370200083702000837020008CD3900085F
:1000D0003702000845480008370200080000000009
:1000E000370200083702000837020008000000004D
:1000F00000000000000000000000000037020008BF
:10010000000000003702000837020008370200082C
:1001100000000000000000000000000000000000DF
:10012000F5270008370200083702000837020008E8
:10013000370200080000000000000000000000007E
:10014000000000000000000000000000D13800089E
:100150000D2800083702000837020008370200089F
:10016000370200083702000800000000000000000D
:10017000000000000000000000000000000000007F
:10018000000000003702000800000000000000002E
:1001900037020008DFF80CD000F028F900480047CB
:1001A000A1900008684800200246D2E84F0F411C89
:1001B000C2E8431F03B1F8E77047024652E8000F58
:1001C000411C42E8001303B1F8E77047024652E8C9
:1001D000000F42E8001303B1F9E77047024652E806
:1001E000000F830103D3BFF32F8F0020704700F06F
:1001F0000040084342E8000303B1F0E770470246BD
:1002000052E8000F800103D2BFF32F8F0020704708
:1002100042E8001303B1F3E7012070470648804726
:1002200006480047FEE7FEE7FEE7FEE7FEE7FEE7DB
:10023000FEE7FEE7FEE7FEE74546000895010008F9
:100240001EF0040F0CBFEFF30880EFF30980816903
:1002500011F8021C91BB01B590E80F10E047BDE812
:1002600000508CE80300244B93E80600914208BF3D
:10027000704741B91EF0100F10D12049086820F0D6
:10028000010008600AE02CE9F00F1EF0100F08BF13
:100290002CED108AC1F838C081F822E01A6092F87B
:1002A0002210906B61F0FF0E1EF0100F08BFB0EC33
:1002B000108AB0E8F00F80F309887047104A13687D
:1002C0009942FAD801B552F821C00FC8E047BDE8FD
:1002D0000050CCF80000704701B500F02DFCBDE8DF
:1002E0000140EFF3098CBEE701B500F067FEBDE801
:1002F0000140EFF3098CB6E7043A002034EF00E048
:10030000709100082DE9F05F0546002092469B465B
:1003100088460646814640241BE02846414647461B
:10032000224600F053F853465A46C01A914110D362
:1003300011461846224600F03AF82D1A67EB0108DC
:100340004F4622460120002100F031F817EB00094A
:100350004E41201EA4F10104DFDC484631462A4606
:100360004346BDE8F09F40EA01039B0703D009E044
:1003700008C9121F08C0042AFAD203E011F8013B91
:1003800000F8013B521EF9D27047D2B201E000F8EA
:10039000012B491EFBD270470022F6E710B5134629
:1003A0000A4604461946FFF7F0FF204610BD202AF2
:1003B00004DB203A00FA02F1002070479140C2F1BC
:1003C000200320FA03F3194390407047202A04DBEE
:1003D000203A21FA02F00021704721FA02F3D040BE
:1003E000C2F120029140084319467047064C074D60
:1003F00006E0E06840F0010394E8070098471034F5
:10040000AC42F6D3FFF7CAFE7C9600089C96000823
:1004100070B58C1810F8015B15F0070301D110F8C6
:10042000013B2A1106D110F8012B03E010F8016BF3
:1004300001F8016B5B1EF9D12B0705D40023521E76
:100440000DD401F8013BFAE710F8013BCB1A921CDE
:1004500003E013F8015B01F8015B521EF9D5A142DC
:10046000D8D3002070BD10B500F1280151E8002F4D
:1004700012B9BFF32F8F04E0531E41E8003404B1DA
:10048000F4E782B12C3001210AE0821CD2E84F3F10
:10049000C2E8441F04B1F9E71A0608BF10BD0830CE
:1004A00000680028F1D1002010BD10B584465CF82A
:1004B000303F8BB1CA784FF0000E05E01C46DB7868
:1004C00093420ED26368A646002BF7D10022C1E901
:1004D000012E00F12C0208E00022C1E90122C162D4
:1004E00009E0C1E9014E04F108021160BEF1000FFC
:1004F00018BF0EF1040CCCF80010283050E8001F93
:100500004A1C40E8002303B1F8E710BDD1E90123FC
:10051000002A0EBFC36293608B68191D002B08BFB1
:1005200000F130010A60704701480068704700BF61
:1005300010E000E007480178012905D10021017091
:1005400005484FF0806101600448016841F00101F5
:1005500001607047AA3F002004ED00E010E000E0D9
:100560004FF0FF307047000040B10B490968B1FB04
:10057000F0F0411E0020B0EB116F02D04FF0FF30C1
:100580007047064AFF231370054A06231360516023
:1005900004499060087070476839002023ED00E03E
:1005A00010E000E0AA3F002010B5930712D400F13C
:1005B0002803D00718D153E8000F084203D1BFF336
:1005C0002F8F002005E020EA010243E8002404B157
:1005D000F1E710BD806AD20700EA010315D1002BB4
:1005E00018BF10BD002010BD53E8000F00EA010243
:1005F0008A4203D0BFF32F8F002005E020EA0102DA
:1006000043E8002404B1EFE710BD8B4218BF00207F
:1006100010BD000080B5124A4FF0000E02F1440CEC
:10062000624606E01A6991420BD3891A03F10C0263
:100630009E461368002BF5D10022C0E902E2016159
:1006400006E0C0E902E3016198601A69511A196174
:10065000BEF1000F18BF0EF10C0CCCF8000080BDED
:10066000F0390020EFF3058129B9EFF3108111B9BA
:10067000EFF3118111B16FF005007047DFF804C08E
:1006800000DF704791120008EFF3058048B9EFF3DF
:10069000108030B9EFF3118018B9EFF31480C00760
:1006A00002D10448007A7047DFF804C000DF7047C9
:1006B000A5120008F0390020EFF3058028B9EFF308
:1006C000108010B9EFF3118010B10348C068704773
:1006D000DFF808C000DF7047F0390020B1120008D1
:1006E000EFF3058028B9EFF3108010B9EFF3118014
:1006F00010B1034840687047DFF808C000DF70475A
:10070000D0950008BD12000880B508F0DFFCEFF3BB
:10071000058028B9EFF3108010B9EFF3118010B104
:100720006FF0050080BDDFF808C000DF80BD00BFAE
:10073000C9120008EFF3058028B9EFF3108010B953
:10074000EFF3118010B16FF005007047DFF804C0BF
:1007500000DF70471D140008F8B50546EFF305806B
:1007600014460E4628B9EFF3108010B9EFF311804C
:10077000F0B16FF003000DB303BBFEB12978FA2985
:100780001CD12846FFF76FFE78B16A6A074600F170
:100790000C013046FFF7E7FD0CB1F87820703846C1
:1007A000FD6000F011FA002008E06FF0020005E0A3
:1007B0002846DFF80CC03146224600DF01B0F0BD0C
:1007C000A5140008EFF305832BB9EFF3108313B9D9
:1007D000EFF311830BB100207047DFF808C000DF92
:1007E000704700BF851500082DE9F0410646EFF37C
:1007F000058090460D4628B9EFF3108010B9EFF34D
:10080000118018B36FF00307EEB1E3B9DDB13078B2
:10081000FA2818D106F10C0000F0A6F888B1726A27
:1008200004460C302946FFF79EFD0027F920C4E955
:10083000015684F80380A7702070204600F0C4F9A8
:1008400001E06FF002073846BDE8F0813046DFF87E
:100850000CC02946424600DFBDE8F081B916000809
:10086000B0B50023D0B3C9B3032A37D886460F31B9
:100870005EF8084F21F0070CDEF804102346A4EBC5
:100880000E0421F00305641B644505D21C689E46D6
:10089000002CF1D1002321E0D0E900436344436000
:1008A000204450F8044C9C423EBF08384360DEF8B8
:1008B000041069B1DEF8000021F0030141F80E00D8
:1008C0004CEA020071444860CEF800108E4603E006
:1008D0004CEA0200CEF804000EF108031846B0BD41
:1008E00080B5002218B311B300F10803A1F1080C80
:1008F0004FF0000E634506D01A461B689646002B43
:10090000F8D1002213E051F8043C4268BEF1000F18
:1009100023F00303A2EB030242604FF0010219BF70
:10092000DCF80000CEF80000002041F8040C10466E
:1009300080BD08B1420702D0002210467047002255
:100940001829FAD311F00703F7D11022C0E90012D9
:100950000144A1F108038360002341F8083C816849
:100960004A600122C360E8E710B5002817D00146AD
:1009700000F1140252E8000F10B9BFF32F8F04E00A
:10098000036842E8003404B1F4E740B1043151E8AF
:10099000002F531C41E8003404B1F8E710BD0020DB
:1009A00010BD00281FD0C2688A421CD802698A4242
:1009B00019D9B0B500F1140213680B60BFF35F8F53
:1009C00052E8003F0C689C42F6D142E8001505B1A0
:1009D000F2E7043050E8001F4A1E40E8002303B14C
:1009E000F8E70020B0BD6FF0030070478446002098
:1009F000BCF1000F18BF00291AD0CAB1C3B180B52D
:100A00004FF0000E02FB0130CCE9001ECCE90223BE
:100A1000CCE90403C1F10100BDE8804003E099186E
:100A2000013019600B460028F9D100201860012020
:100A30007047F8B50446807868B3E56821462846D3
:100A4000FFF764FD002005F10C06214620703046BA
:100A5000FFF7A7FFA868E8B13046FFF785FFC8B1E8
:100A60000446284600F0F8F9002100220646002737
:100A700000F08AFA304600F037FA81686A6A064662
:100A800004F10C00FFF76FFCF920A7702070F068EC
:100A9000E07025E0F8BDA568A86808B34078832811
:100AA0001ED1284600F0D8F9002100220646002772
:100AB00000F06AFA304600F017FA064680686A6A63
:100AC00004F10C01FFF74FFCF06808B1E178017008
:100AD000277005F10C002146BDE8F840FFF761BF23
:100AE00028462146BDE8F840FFF7DFBC2DE9F0417C
:100AF000044600274FF0010819E025466469E878AC
:100B0000000714D52F76A86888B1284600F0A4F90C
:100B100000210022064600F037FAC5E90367F06AB3
:100B20000028686100D00561F56285F81880002C06
:100B3000E3D1BDE8F081000070B5224C04F1560508
:100B400004F15A0628E0D6E85F1F4A1C904200D8FC
:100B50000022C6E8532F03B1F5E788B2E16D51F8E2
:100B60002000002828D00178F139082914D8DFE8BE
:100B700001F005130813130B0E131100216E8847A3
:100B80000AE0616E884707E0A16E884704E0E16EE5
:100B9000884701E0216F8847B4F85400D5E85F1F0B
:100BA00011B9BFF32F8F04E04A1EC5E8532F03B1DC
:100BB000F4E709047FF4C7AF0020BDE8704000F0FF
:100BC000F1B800BFF039002070B501461948B0F8FF
:100BD000542000F15603D3E85F4FA24202D8BFF37E
:100BE0002F8F04E0651CC3E8565F06B1F3E7A3B29C
:100BF00093421AD200F15803D3E85F4F651CAA4212
:100C000000D80025C3E8565F06B1F5E7A2B2C36D70
:100C100043F82210417A002919BF01218172064848
:100C20004FF0805108BF016070BD0220BDE87040E8
:100C300008F04ABAF039002004ED00E010B58168F0
:100C4000B1B100F10C01D1E85F2F12B9BFF32F8FC2
:100C500004E0531EC1E8543F04B1F4E7110407D087
:100C600000F0FAF800210022BDE8104000F08CB935
:100C700010BD0000012141700B4990F920C001F125
:100C80001C02114692684AB192F920306345F8DCA3
:100C9000C0E90221886002F10C0103E00022C0E9F2
:100CA0000221083108607047F039002010B54A1C55
:100CB00011D01F4A002402F12C0C624603E0891A6D
:100CC00003F110021C461368E3B1DA699142F6D2CF
:100CD0004FF0010E18E01649002301F130042146BF
:100CE0001A460B6803F11001002BF9D14FF0FF31C8
:100CF000002AC1614FF00001C0E9041216D002F1D0
:100D0000100413E04FF0000E002CC0E90434C16160
:100D100018BF04F1100CCCF80000BEF1000F08BFA2
:100D200010BDDA6903F11404511AD961206010BDB5
:100D3000F0390020C2690169531C0AD021B1CB6986
:100D40001A44CA6142694A6142693AB90748C162B4
:100D5000704709B142694A6142691AB111610021C3
:100D60004161704701480163704700BFF0390020BE
:100D7000B0B50B4DEC6A1CB1E0690138E06100D000
:100D8000B0BD204600F087F8204600F0A3F82469A3
:100D900024B1E0690028F4D000206061EC62B0BDAD
:100DA000F0390020B0B505461448002D4469017A99
:100DB0000CD0022905D194F9200095F92010814228
:100DC00012DC2846BDE8B04000F084B8022913D1F7
:100DD000456A8DB194F9200095F920108142D8BF61
:100DE000B0BD284600F057F82046FFF743FF2846DD
:100DF000BDE8B04000F0A2B8B0BD00BFF03900209F
:100E000010B5044600202080A07881070DD5C006CB
:100E100005D41048216B406FFFF762FD05E00D48D7
:100E2000216BD0F88400FFF7BCFDA078C00708BF95
:100E300010BD0849D1F8880020B12146BDE8104016
:100E4000FFF7AFBDD1F880002146BDE81040FFF7A5
:100E500047BD00BFF0390020014680688268002A43
:100E60008A6000D0D1600021C160704791F920C034
:100E70000246806840B190F920306345F8DAC1E954
:100E800002020C30916004E00020C1E9020202F18C
:100E9000080001607047C16831B182688A60826869
:100EA00002B1D1600021C160704710B5044640789E
:100EB000332818BF10BD94F82320616A2046FFF73D
:100EC00073FB30B1014620460022BDE8104000F01F
:100ED0005BB810BD01460120487002481C30FFF786
:100EE000C5BF00BFF039002090F82210C9064FF0AE
:100EF000200158BF6021806B0844704770B50B4CCF
:100F00000B480021A26D666E00F08EFD094D002E8B
:100F1000A86209D0E26D0848002100F085FDA864B0
:100F2000002818BF012070BD012070BDD0950008B9
:100F3000CB900008F03900202D10000802214170EC
:100F40000149886108F0CCB8F039002010B50D4C8B
:100F500002460020237A022B12D1636A83B16069B2
:100F60004270FFF7A3FE606A81680029616202D0C7
:100F700004F11C02CA600021C160FFF7DFFF0120FD
:100F800010BD00BFF0390020B0B5044690F8220033
:100F90001546C0064FF0200058BF6020A26B81505C
:100FA0002046FFF7C7FE20461DB1BDE8B040FFF761
:100FB000F9BEBDE8B040FFF78DBF0000B0B5FFF748
:100FC000B3FA194DE968286D01310028E96000D0B5
:100FD0008047FFF7CDFE0020FFF7E4FE296C11B338
:100FE000AA69A86B90421CBFC5E90E21B0BDE96B90
:100FF00011B10139E96316D1297A022913D16C6A3A
:101000008CB190F8200094F8201081420BD120463A
:10101000FFF741FFA86BFFF75DFF2046FFF78EFF4C
:10102000286CC5E90E40B0BDF039002082B00B48F5
:101030000821D0E91820FFF7C5FB094D09496C4686
:10104000C5E91301214600224FF0FF33FFF784FB6F
:1010500010B9DDE900108847E86CF3E7D095000887
:10106000F03900206910000870B5144D6C6C1CB389
:1010700020690126013820611CE02069E0B9E068A0
:1010800008B1A1688160686404F11801002200239E
:10109000E86CFFF7A9FB18B10320214608F014F80B
:1010A000E078012804D161692046FFF7B3FA00E037
:1010B00066706C6C002CE0D170BD00BFF039002070
:1010C000EFF305822AB9EFF3108212B9EFF3118220
:1010D000CAB16FF00302A0B199B90178F62910D115
:1010E0000C30D0E85F1F11B9BFF32F8F04E04A1E08
:1010F000C0E8532F03B1F4E70022080408BF6FF0E3
:10110000020210467047DFF808C000DF704700BFDA
:1011100079170008EFF3058129B9EFF3108111B9B0
:10112000EFF3118111B16FF005007047DFF804C0D3
:1011300000DF7047D1170008EFF305832BB9EFF3F9
:10114000108313B9EFF311830BB100207047DFF860
:1011500008C000DF704700BF31180008EFF30581B9
:1011600029B9EFF3108111B9EFF3118109B3B0B5CB
:10117000E0B10178F62919D1C18900F10C02D2E859
:101180005F3F994202D8BFF32F8F04E05C1CC2E896
:10119000554F05B1F3E7C28999B2914224BF6FF070
:1011A0000200B0BDFFF710FD0020B0BD6FF00300DE
:1011B000B0BDDFF808C000DF704700BFB1180008FD
:1011C000DFF804C000DFFEE705190008EFF3058231
:1011D0002AB9EFF3108212B9EFF31182E2B1B0B580
:1011E0006FF00304B0B1002914DB0278F12A11D1A9
:1011F0004278042A02D16FF002040BE000F12802C9
:1012000052E8003F43EA010442E8004505B1F7E730
:10121000FFF7DAFC2046B0BDDFF804C000DF7047FE
:1012200075190008EFF305832BB9EFF3108313B999
:10123000EFF3118313B16FF005007047DFF804C0BE
:1012400000DF7047DD190008EFF305832BB9EFF3DA
:10125000108313B9EFF311830BB100207047DFF84F
:1012600008C000DF704700BF291A0008EFF30581AE
:1012700029B9EFF3108111B9EFF3118111B16FF0BA
:1012800005007047DFF804C000DF7047051C000848
:1012900030B180B501461320FFF758FEBDE880400D
:1012A000002070470148007A704700BFF0390020E5
:1012B0000148C068704700BFF0390020014840680D
:1012C000704700BFD09500082DE9F843504F387A99
:1012D000012800F09580002840F0948007F1080074
:1012E0009C21FFF759F8DFF82C81B8F81000A7F817
:1012F0005400D8E90202D8E90B41FA653864204667
:10130000FFF717FB08B1C7F88040D8E90541DFF8BF
:101310000891D8E907562046C847D7F8801000281A
:10132000284618BF214679673146C847D7F880104C
:10133000002818BF2946B967D8E909412046C8479F
:10134000D7F88010002818BF2146D8F83440F96734
:101350003CB12168D4E902232046FFF747FBC7F8D8
:101360008440D8F838403CB12168D4E902232046B3
:10137000FFF73CFBC7F88840D8F83C403CB12168F7
:10138000D4E902232046FFF731FBC7F88C40D8F898
:1013900040403CB12168D4E902232046FFF726FBF8
:1013A000C7F89040D8F844403CB12168D4E9022302
:1013B0002046FFF71BFBC7F89440D8F848403CB1E3
:1013C0002168D4E902232046FFF710FBC7F89840B4
:1013D000D8F84C403CB12168D4E902232046FFF7FD
:1013E00005FBC7F89C40D8F850403CB12168D4E9CF
:1013F00002232046FFF7FAFAC7F8A040012038720E
:10140000002001E04FF0FF3001B0BDE8F08300BFE5
:10141000F0390020D095000833090008B0B51D4C04
:10142000207A01281CD1FFF769FDC8B11A48FF21B5
:101430001A4D8175817D026881F0FF01C2F302229D
:10144000B1FA81F1C1F120018A4228BF511CFE226C
:1014500002FA01F1C17468681149FFF785F810B10B
:101460004FF0FF30B0BDFFF77BF82061FFF762F867
:1014700004F11C00FFF7F0FCFFF760FD2878C007BF
:101480000CBF0320022080F3148802202072002069
:10149000B0BD00BFF03900200CED00E0D095000891
:1014A000E90200082DE9F84300284CD00F466FF000
:1014B0000305002949D004460078FA2845D1204682
:1014C00099469046FEF7CFFF002842D006462046B8
:1014D0003146FFF71BF8626A06F10C013846FEF749
:1014E00042FFB8F1000F1CBFF07888F8000004F14B
:1014F0000C070025314638463570FFF752FAA068D0
:1015000018B33846FFF730FA0025F0B106462046FA
:10151000FFF7A2FC002101220746FFF735FD384600
:10152000FFF7E2FC8168626A074606F10C00FEF7ED
:101530001AFFF920B57031463070F868F070204617
:10154000FEF7B3FF01E06FF00305284601B0BDE8E8
:10155000F083B9F1000F10D083204946FFF7F6FC65
:1015600040B1074841692046FFF780FCEFF309804E
:10157000C0E902786FF00105E7E76FF00205E4E7E4
:10158000F03900202DE9F84F002770B10D4661B108
:1015900005F10F010446B0FA80F021F00306B6FA17
:1015A00086F10844202804D20027384601B0BDE85F
:1015B000F08F06FB04F872B1D2F808A01368D2E9E4
:1015C0000490BAF1000F11D05FEA8A71ECD1D168B2
:1015D0003429E9D30DE000234FF00009344900938A
:1015E000D1F8A00078B1FFF7BFF912E0D168002967
:1015F000DAD1B9F1000F2FD000274045D5D319F02B
:1016000003002BD0D1E7D1F8800034210122FFF76D
:1016100027F982464FF0010BB9F1000F10D1BAF152
:10162000000F0DD0224F41460022F86FFFF718F946
:10163000814638B148464146FEF7AEFE57461AE0AD
:1016400057461AE0BBF1000F14D0D7F8A00060B1E4
:101650005146FFF7A6F90DE00028A5D1BAF1000F19
:10166000BCD000934FF0000BD6E7D7F8800051466E
:10167000FFF736F900270BF1020B002F3FF495AF6F
:10168000002032464B46C7E90950C7E90B000099D4
:10169000C7E90110FA2087F802B02146387007F137
:1016A0000C00FFF7A3F90248024901677DE700BF7C
:1016B000F0390020330A00082DE9F84338B30E460C
:1016C0006FF00307002951D005460078FA284DD164
:1016D000A86899469046E8B1407883281AD12846F0
:1016E000FFF7BAFB0021012204460027FFF74CFC5C
:1016F0002046FFF7F9FB044680686A6A3146FEF728
:1017000032FEE06890B380F8008000272EE06FF092
:1017100003072BE005F10C00FFF726F980B16A6A98
:1017200004460C303146FEF71EFE0027F92084F8EF
:1017300003802146A77020702846FEF7B6FE15E00C
:10174000B9F1000F10D093204946FFF7FFFB40B1DD
:10175000084841692846FFF789FBEFF30980C0E993
:1017600002686FF0010701E06FF00207384601B030
:10177000BDE8F083F0390020B0B508B30446007826
:10178000F6281DD104F10C00D0E85F2F12B9BFF389
:101790002F8F04E0531EC0E8553F05B1F4E7100455
:1017A0001CBF0020B0BD71B16320FFF7CFFB20B19B
:1017B000064841692046FFF759FB6FF00100B0BDB4
:1017C0006FF00300B0BD6FF00200B0BDF039002033
:1017D00010B508B304460078F6281DD1A06868B19A
:1017E0002046FFF739FB6FF002010022FFF7CCFB28
:1017F000A0680028F4D10020FFF7D4FA0020207060
:10180000A178C90708BF10BD0849D1F8980030B1C8
:101810002146FFF7C6F807E06FF0030010BDD1F8CE
:1018200080002146FFF75CF8002010BDF039002051
:1018300070B5054601384FF6FE730C4600219842FC
:1018400098BFAC4201D9084670BD4AB1906816688D
:1018500070B181070FD1D2680021102AF3D314E0B0
:1018600000261149D1F8980038B1FFF77DF80AE059
:10187000D0680028F5D00021E5E7D1F880001021DC
:101880000122FEF7EDFF60B101210022C5818481B4
:10189000C0E901628170F621044A017002498A663A
:1018A00000E000200146CEE7F03900203D0C0008A2
:1018B000B0B560B10178F62909D1816859B1FFF757
:1018C000CBFA002101220024FFF75EFB01E06FF05C
:1018D00003042046B0BDC18900F10C02D2E85F3F8D
:1018E000994202D8BFF32F8F04E05C1CC2E8554F29
:1018F00005B1F3E7C28999B26FF00200914238BF97
:101900000020B0BD70B51A4D287A02282ED1686A21
:10191000002808BF70BD6C69E06AFFF7E7F8A069AE
:1019200018B100210022FFF72FFBEFF30980A0631D
:10193000686A81680029696202D005F11C02CA60E8
:101940000026C660FFF7FAFA6E61E078C00704D19E
:101950002046BDE87040FFF753BA0420E66060708F
:10196000686B0028A06000D0C4606C6370BD00BFCD
:10197000F0390020B0B56FF0030460B300292ADB12
:1019800005460078F12826D16878042802D16FF046
:10199000020420E005F1280050E8002F42EA01048B
:1019A00040E8004303B1F7E76878332813D195F88E
:1019B0002320696A2846FEF7F7FD60B1014695F8D5
:1019C000230001220C4680075CBF686A21EA0004FC
:1019D0002846FFF7D9FA2046B0BD0000F8B5054605
:1019E00010484769A7B1002D15DB0E46144638464E
:1019F00029463246FEF7D8FD90B97CB13320214606
:101A000087F823607D62FFF7A1FA6FF0010007E01D
:101A10004FF0FF3004E06FF0030001E06FF00200D0
:101A200001B0F0BDF03900202DE9FE4F10B3804623
:101A30006AB102F1100A9AE88006D2E9004396687A
:101A4000B6B1B00716D1D068442813D317E04FF0D1
:101A5000180A002300274FF000090024644A02936B
:101A6000D2F88800CDE90014C8B1FEF77DFF1CE074
:101A7000D06820B10025284603B0BDE8F08F37B10B
:101A80000025B9F1000FF6D017F00700F3D1BAF135
:101A9000000F38D0AAF101003728EBD835E0D2F892
:101AA000800044210122FEF7DBFE06464FF0010BC9
:101AB00067B95EB1B9F1000F0AD04D48494600221E
:101AC000406FFEF7CDFE98B107460FE035463EE089
:101AD00047484849D0F88400D1F854900028ECD009
:101AE000FEF742FF20B107460BF1100B35462CE004
:101AF000BBF1000F1CD03E49D1F88800E0B131465F
:101B0000FEF74FFF1DE04FF0180AB9F1000F06D0A5
:101B10000025B9F1480FAED319F00700ABD1002E64
:101B20003FF49CAFCDE9001402934FF0000BBFE7E8
:101B30004FF0000B002707E0D1F880003146FEF798
:101B4000CFFE00274FF0010B00254BF0020B002DBC
:101B50003FF491AF0198182168600298E87040F254
:101B6000F11085F802B0288005F10800FEF714FC9A
:101B700007EB0900C5E90C79FD214038C5E90E08DD
:101B8000002085F82F00C5F82B00C5F82700C5F800
:101B9000230085F82210184985F821A085F820A097
:101BA000009E39601349097849070AD511213A1D69
:101BB0004FF0CC33A1EB990101E008C201310029BB
:101BC000FBD1A96B002202E041F8220001320D2A6C
:101BD000FAD10A4A4FF080700E62C1E90D28C8633D
:101BE0000348074901662846FFF7DCF843E700BFD2
:101BF000F0390020D0950008A52E5AE2C111000846
:101C0000AB0E000870B5C8B104460078F12815D1B4
:101C1000607800F00F00012813D0032815D00228A7
:101C20001CBF6FF0020070BD25496FF002000A7AF8
:101C3000022A18BF70BD496A69B970BD6FF0030010
:101C400070BD2046FFF727F905E02046FFF723F98E
:101C50002046FFF76FF8E06AFEF748FFA06918B169
:101C600000210022FFF790F96078022811D1144D6D
:101C7000EFF30980A063686A81680029696202D075
:101C800005F11C02CA600026C660FFF757F96E61B5
:101C900002E00020FFF786F8E078C00703D1204675
:101CA000FFF7AEF80AE00020E0600420607004480E
:101CB000416B0029A16000D0CC604463002070BD5E
:101CC000F03900202DE9F043047885B0894654B1FD
:101CD000012C09D05FF0000489F8004005B04FF0F6
:101CE0000110BDE8F08301240F480125142105707F
:101CF0006846FEF751FB6803002603278DE8E100E4
:101D0000DFF828806946404601F06AF9A8038DE8AB
:101D1000E1006946404601F063F90548C0F8B85251
:101D2000C0F8B452D8E70000143B00200000024085
:101D3000000040422DE9F04102787F2A03D0BDE83F
:101D4000F04100F057B801F8012B457801F8015B2C
:101D5000861C0C464FF0021708E02146304600F082
:101D600049F8074406EB104614FA80F46D1EF4D2CD
:101D70003846BDE8F081000010B50B46002401464E
:101D8000204606292FD006DC05292CD2DFE801F0F9
:101D90002B2B2B2B0F00FD2918D002DCF02922D190
:101DA0000CE04022FE291CD0FF291CD115E006249E
:101DB00022460E491846FEF7D6FA14E00C48006891
:101DC00000B1202040F0550018700BE00121187080
:101DD00059709870D870042405E01A705870022465
:101DE00001E01A700124204610BD0000089100088F
:101DF000683900202DE9F047027886B0A2F180030F
:101E00001F2B04D800F044F906B0BDE8F08701F8B4
:101E1000012B0C4610F801CB0126FF21954F964A65
:101E2000DFF858A200254FF003094FF00113BCF171
:101E30001F0F77D2DFE80CF01018292DA2ABC77660
:101E4000E34C5A76767676765E626677859C9FFC62
:101E5000EEEDECEBEA81E9000078611CFFF78CFF06
:101E6000207000F10210CFE70378854A23B1012BDF
:101E700002D021703846F6E04078C00702D0C2F8A0
:101E8000B45231E0C2F8B4622EE02146FFF71AFFE7
:101E9000E9E0157014216846FEF77EFA4FF4005011
:101EA000CDE90005DFF8DC81CDE902594F466946EE
:101EB000404601F095F84FF48040CDE90005CDE9AA
:101EC00002576946404601F08BF825703046CAE05B
:101ED00001886D486D4A0068B0FBF2F0801CB0FBD1
:101EE000F9F04843401EFDD12570C3E765702570A9
:101EF0000220B8E0214600F07DFBB4E0214600F06E
:101F00004FFBB0E010F8016B01460EB94FF480763C
:101F1000304602F0C5F9F61D2570F008000400F106
:101F20000110A0E0A2E0007800F00301491C117646
:101F3000C0F38000507625701EE0214600F0AEF818
:101F400091E0217001210C4610F8013B0BE000BF2D
:101F500010F8012B12F03F0200D14022D21DD2080E
:101F600011441044491C5B1EF2D244EA01407AE05D
:101F700000782170D2E72170184674E0017811735F
:101F8000B0F801101182B0F8030050824EE0034611
:101F900010782146012812D0581C10F8012B42B1AC
:101FA00010F8014BA60701D5E40600D5001D521E0E
:101FB000F6D1C01A0D7000044D70801C53E0184615
:101FC00000F0CCF84FE0064610782146012809D0F1
:101FD0000D704D70A5700321F078800707D541F48E
:101FE000802040E0304600F049FA0146F4E7B6F8B8
:101FF00001004FF4802202EB8040084333E0127866
:10200000012A09D0217050462DE025E028E01FE08C
:102010001AE015E010E00BE00179D0F8010061F35F
:102020001F6000906946002001F0FCFD2570EAE782
:10203000214602F05DFA16E0214602F00BFA12E0AA
:10204000214602F059F90EE0214602F073F90AE048
:10205000204602F025FA06E0214602F0E1F902E00E
:10206000214602F0A1F900F10110CDE604F8011CAF
:102070001846C9E601000200143B002001000500DB
:1020800000004142000002406839002040420F0039
:1020900000784FF001120870104670472DE9F04F9C
:1020A00085B04FF0000B01F801BB012510F8016B62
:1020B0008A46A946044646E014F8017B17F03F0023
:1020C00000D14020C01D4FEAD008380605D54FF496
:1020D0000051204800F0FAFE13E01F490120C1F82A
:1020E000B40214216846FEF757F94FF400500090EF
:1020F0000120CDE9010B032003906946154800F04B
:102100006FFF52462146384601F03AFD9EB912490A
:102110000120C1F8B40214216846FEF73DF94FF4DE
:10212000005000900120CDE9010B03200390694687
:10213000084800F055FF380602D5C244C14401E00A
:10214000444445446D1C761EB6D205B049EA0540AC
:10215000BDE8F08F00000240000040422DE9F04F42
:1021600087B08B4601F1020904460590C149002061
:102170000290087001906578A41C8046002D6FD0F5
:10218000DFF8F4A214F8016BB1076AD5B8F1000FBB
:102190003BD0BAF8107006F0110001280AD0DFF821
:1021A000D48269460E2001F03DFD022812D04FF086
:1021B000000805E06946304601F034FD022802D0EF
:1021C000012806D10FE07F1E03D3AA490978002910
:1021D000F0D0FCE07F1E03D398F800100029E0D077
:1021E0004FF00008F3E0009989F80010009A09F117
:1021F0000101120A01F8012B009A120C01F8012BBF
:10220000009A120E01F8012B8946F1064DD5E178AE
:1022100054F8040B61F31F600490BAF812000390A5
:10222000F00712D0BAF810700021304601F0FAFC25
:10223000022802D0012807D107E07F1E791C03D0B5
:102240008C4909780029EFD0C1E0BAF810706946CE
:10225000304601F0E7FC022804D0012819D108E03B
:10226000D5E060E07F1E14D3824909780029EED0C2
:102270000FE0DAF8142000990A4004998A4208D045
:102280000399491E0391491C03D07A490978002912
:10229000DBD0DAF8142000990A4004998A4201D070
:1022A00040F01000012816D13BE0BAF81070F10799
:1022B00015D0B8F1000F34D10021304601F0B2FC46
:1022C000022802D0012806D106E07F1E7FD369498B
:1022D00009780029F0D07AE04FF0010821E0694642
:1022E000304601F09FFC022802D001286FD106E0A1
:1022F0007F1E6CD35F4909780029F0D067E0009910
:1023000089F80010009A09F10101120A01F8012B65
:10231000009A120C01F8012B009A120E01F8012B01
:102320008946002148E0B8F1000F25D0BAF81070B6
:1023300069460E2001F076FC022802D0012846D121
:1023400006E07F1E43D34B4909780029F0D03EE0D8
:10235000009889F80000009909F10100090A00F8C5
:10236000011B00994FF00008090C00F8011B0099AF
:10237000090E00F8011B8146E17854F8040B61F363
:102380001F600090B10603D5CAF81400012014E0C4
:10239000BAF810706946304601F044FC022802D0B9
:1023A000012814D107E07F1E791C10D0314909782B
:1023B0000029EFD00BE0012101910299491C029103
:1023C0002C49097819B96D1E7FF4DCAE09E045B1DE
:1023D00014F8011B8A0701D5C90600D5241D6D1EFE
:1023E000F5E7012837D1B8F1000F24D0BAF8105022
:1023F000204E69460E2001F015FC022802D001286B
:1024000029D105E06D1E26D331780029F1D022E0D4
:10241000009989F80010009A09F10101120A01F8E7
:10242000012B009A120C01F8012B009A120E01F8F0
:10243000012B89460FE0019969B1BAF810500D4E91
:1024400000210E2001F0EEFB022804D16D1E02D304
:1024500031780029F4D002998BF800108BF8010034
:102460000598A9EB0B01201A07B041EA0040BDE82E
:10247000F08F0000EE380020143B00202DE9F84FCB
:10248000DFF814810027044638460D4601F1030A9F
:1024900088F80070B4F80160E41C002E73D014F8C2
:1024A000019BDFF8F8B05FEA89715CD55FEAC9711A
:1024B0003CD0BBF810400021484601F0B3FB022895
:1024C00002D001285FD131E0641E5CD398F800107F
:1024D0000029F0D057E026B95FEAC97001D04FF06B
:1024E0000E09BBF810406946484601F09BFB0228E4
:1024F00002D0012847D106E0641E44D398F80010AA
:102500000029F0D03FE000998AF80010009A0AF103
:102510000101120A01F8012B009A120C01F8012B9B
:10252000009A120E01F8012B8A467F1C761ED2D229
:1025300029E0E17854F8040B61F31F600090BBF8C8
:1025400010806946484601F06DFB022802D0012840
:1025500019D107E0B8F1010815D30F49097800290E
:10256000EFD010E07F1C761EE3D2BBF810400A4E7D
:1025700000210E2001F056FB022804D1641E02D374
:1025800031780029F4D02F70390A6970A870AAEB4D
:102590000500BDE8F88F0000EE380020143B002055
:1025A00030B5C2780368104862F31F634BB10F4A1D
:1025B000002415680E4AB3EB950F05D30123537021
:1025C0000FE0FF220A7030BD03EB55056D1EB5FB11
:1025D000F3F35470022B03D90325B3FBF5F300E0AA
:1025E000012353600C7030BD0100040068390020E5
:1025F000143B0020F0B54479D0F8025003784278BB
:1026000064F31F652648D7074FF000064FF001041A
:1026100006D0DF0702D0C0F8B84201E0C0F8B862C7
:10262000970706D59F0702D5C0F8B44201E0C0F86D
:10263000B46255B31B4E0127D6F804505FEAC27C42
:1026400003D0D0F838C29C4519D15FEA827C04D50A
:10265000D0F834C2BCEB530F11D15FEA427C02D5F3
:102660005FEA930C0BD15FEA826C02D55FEA531CE0
:1026700005D15FEA026C08D5B4EBD31F05D0D6F8BC
:1026800004C0ACEB050CBC45D8D3D0F83822D0F848
:10269000340242EA400040F0800008700248F0BD79
:1026A00000004042001000E0010006000C4800213C
:1026B0000C4A0170417012680B4BB2FBF3F2921E90
:1026C00042600173642202824182012241610276EA
:1026D00041760648C0F8B822C0F8B422704700001E
:1026E000143B002068390020002D310100004042D9
:1026F000DFF8F4803D4C4FF0FF3A4FF0000908F549
:10270000805B524600218120FEF78CFD67E0A688A1
:102710007F2745460EE0761C0770402E00D100262C
:102720006088864206D1524600218120FEF77AFD5C
:10273000000604D405EB861001787E29EBD0608971
:102740005E460BEB8011A08805EB8010FFF7F2FAD4
:10275000274F618927F81100A088401CA080A0881D
:10276000402801D1A4F804902089401C20812078C1
:1027700078B1E0882189401A80B2402809D084F8D5
:1027800000906088402305EB80120121002004F0B6
:1027900099FD6089401C60816089402801D1A4F8BE
:1027A0000A90E089401CE0816078C0B1E089218A0C
:1027B000884214D0A089411CA181A189402901D15E
:1027C000A4F80C90218A491C218284F8019037F8E2
:1027D000103006EB80128121002005F0F3F8E0882C
:1027E000218988428DD092E700000020DC3800204B
:1027F000943A002010B5382000F029FDBDE81040C3
:10280000014800F081BA00005C3C002010B5442073
:1028100000F01DFDBDE81040014800F075BA000051
:10282000BC3C0020224A08B52249904207D10868E2
:1028300040F001000860086800F0010009E01E4A4D
:10284000904208D1086840F002000860086800F073
:102850000200009008BD194A904207D1086840F074
:1028600004000860086800F00400F2E7144A90428F
:1028700007D1086840F008000860086800F0080008
:10288000E7E7104A904207D1086840F0100008605E
:10289000086800F01000DCE70B4A9042DAD10868C3
:1028A00040F080000860086800F08000D1E7000078
:1028B000000002403038024000040240000802409C
:1028C000000C024000100240001C0240F8B5234FEB
:1028D000234E244D244C254B254A2649B84207D186
:1028E000086840F001000860086800F0010033E06B
:1028F000B04208D10D6845F002050D600D6805F085
:10290000020500950AE0A84208D10C6844F00404CE
:102910000C600C6804F0040400940AE0A04208D1A2
:102920000B6843F008030B600B6803F00803009387
:1029300009E0984207D1086840F010000860086874
:1029400000F0100008E0904207D1086840F08000D5
:102950000860086800F080000090F8BD00000240A8
:102960000004024000080240000C02400010024037
:10297000001C0240303802402DE9F0410A4D05F1BB
:102980001806AF6900F032F9044601463046FDF7FB
:102990001DFCB842F5D1844203D203481030FDF744
:1029A0000CFC2046BDE8F081404400202DE9FF5F8B
:1029B0008B464FF0805000EADB08400007259A461E
:1029C0009146410000EA990701EA5A062048FDF7BE
:1029D000F4FB014600F03F021E48890900EB021497
:1029E0004FF4700000EA01510098084340EA0800E3
:1029F0003843304340F0406104F10C00FDF7EEFB3A
:102A000041011CD580F0044101F000402BF0004250
:102A10000243226029F00042024362602AF0004231
:102A2000024304F10C00A260FDF7E9FB48B108483D
:102A3000001DFDF7C2FB012004B0BDE8F09F6D1E34
:102A4000C4D103480830FDF7B8FB0020F4E70000CC
:102A500044440020C03F00202DE9F0478146FF2973
:102A600001D2FF2A02D30020BDE8F0870024104DD8
:102A700020464FF0010A0AFA00F3564613EA090FFE
:102A80000FD00B46B2460AE004EBD30603F007086A
:102A9000AF5D0AFA08FC47EA0C07AF555B1C93428E
:102AA000F2D9401C20340428E5D30120DCE70000E3
:102AB000C04300202DE9F0473C4C88468146002564
:102AC00025708021A4F18000FDF766FC384B4FF69D
:102AD000FF761822304641F2210700BF13F8011B90
:102AE00080EA01205FF008015FEA004C06EA40003E
:102AF00000D57840491EF7D1521EEFD12D4A236AE6
:102B00000121934201D0226202E06288824202D017
:102B10006080E16137E0E069401CE061012832D06B
:102B2000254B002003EB0011CA68560102D522F0A4
:102B30004062CA60401C4028F4D3E06901282BD0D1
:102B400000F060F80646DEB1FE2200214846FFF79D
:102B500083FFEF2211460F20FFF77EFFFE22114672
:102B60000420FFF779FFFFF707FF01460023134812
:102B7000E269FFF71BFFB8F1000F01D000F020F869
:102B80003046BDE8F08765706560A5604FF48061F0
:102B90000948E560FDF700FC00F034F8061E01D09E
:102BA00000F02AF8C4E905052561CCE7404400207F
:102BB000BC9200086B27A5E1C03F002000FF000386
:102BC000084810B5017809B1012010BD012101703C
:102BD000FFF7D2FE014600231A460348FFF7E6FE40
:102BE000F2E700004044002001FF00030148406874
:102BF00070470000001000E00148006870470000C6
:102C0000683900200548016841F08071016004487E
:102C1000016841F00101016001207047FCED00E016
:102C2000001000E070B50C4CE078012804D0E0689A
:102C30002169451A284670BD0026A671E068216901
:102C4000451AA078012802D101F0A2FD0544A0791F
:102C50000028F2D1EEE70000F0380020054AD31D2D
:102C6000117981F001001071585CD2781043002274
:102C70005A547047F03800202DE9F0410446876D22
:102C800000F08AFA064694F835000025022806D09E
:102C90008020606584F834500120BDE8F081206810
:102CA000016821F0160101602068416921F080016E
:102CB0004161206C08B9A06C20B12068016821F046
:102CC000080101602068016821F0010101600BE04A
:102CD00000F062FA801B052806D92020606504F800
:102CE000345F03206070D8E720680068C007EFD128
:102CF00094F85C103F208840B86004F8345F0120ED
:102D000060700020C9E700002DE9F84304464FF049
:102D10000009CDF8009063484FF41651A56D006886
:102D2000B0FBF1F72E6894F85C10082000FA01F16E
:102D300031420FD021680A6852070BD50A6822F089
:102D400004020A6094F85C108840A860606D40F04E
:102D50000100606594F85C104FF0010808FA01F07A
:102D6000304208D021684969090604D5A860606D21
:102D700040F00200606594F85C1004208840304206
:102D800008D021680968890704D5A860606D40F003
:102D90000400606594F85C1010208840304218D020
:102DA00021680968090714D5A860206801684903EB
:102DB00004D50068000308D5A16C07E00168C905C7
:102DC00003D4016821F008010160216C09B120469B
:102DD000884794F85C1020208840304231D0216828
:102DE0000968C9062DD5A86094F835000528206823
:102DF000016806D0490347D5006800031DD4616C03
:102E00001CE021F0160101602068416921F0800179
:102E10004161206C08B9A06C20B12068016821F0E4
:102E20000801016094F85C103F208840A86084F895
:102E3000349084F83580216D1FE0E16B09B12046A4
:102E40008847606D00282BD0606DC00714D0052026
:102E500084F835002068016821F0010101600098C4
:102E6000401C0090B84203D820680068C007F6D123
:102E700084F8349084F83580E16C002910D001B0DA
:102E80002046BDE8F04308470168C905D5D401686C
:102E900021F01001016084F8349084F83580CCE78B
:102EA000BDE8F8836839002070B5044600F074F975
:102EB0000546601C02D004480078044400F06CF918
:102EC000401BA042FAD370BD5C3900202DE9F04FC1
:102ED0000022DFF8F0B001264FF00F0906FA02F4E5
:102EE00001EA0403A34267D122F003075F44D7F845
:102EF000088895074FEA157C09FA0CFA0AEA0805D2
:102F0000DFF8C480404502D14FF000081DE0DFF833
:102F1000BC80404502D14FF0010816E0DFF8B080D8
:102F2000404502D14FF002080FE0DFF8A88040458D
:102F300002D14FF0030808E0DFF89C80404502D141
:102F40004FF0040801E04FF0070808FA0CF8A84514
:102F500015D1D7F808C82CEA0A0CC7F808C81F4DC5
:102F60002F689F432F602D1D2F689F432F602D1DBD
:102F70002F689F432F602D1D2F689F432F6005688A
:102F800057000323BB409D430560D50800EB850532
:102F9000D5F820C057074FEAD76809FA08F72CEA96
:102FA000070CC5F820C085689D4385604568A5432A
:102FB0004560C4689C43C460521C102A8ED3BDE88F
:102FC000F08F000000300140000002400004024089
:102FD00000080240000C024000100240003C01408A
:102FE0002DE9F84FDFF860B100224FF001084FF0F3
:102FF000030A4FF00F090BF1040E00BF0B6808FA2B
:1030000002F42340A3426ED14D68022D01D0122D4F
:103010000ED1D50800EB850CDCF820505607F70ED2
:1030200009FA07F6B5430E69BE402E43CCF820607E
:10303000066855000F790AFA05FC07F0030726EA2F
:103040000C06AF40374307604E68012E05D0022EB4
:1030500003D0112E01D0122E0ED18668CF6826EA39
:103060000C06AF40374387604668A6430C79C4F32B
:103070000014944034434460C6688C6826EA0C0609
:10308000AC403443C4604C68E40056D52F4C2568EE
:1030900045F480452560246822F0030504F480444B
:1030A00000942B4C2E19D6F8084895072F0F09FAD3
:1030B00007F5AC43274DA84201D1002515E0264D68
:1030C000A84201D1012510E0244DA84201D10225DA
:1030D0000BE0234DA84201D1032506E0214DA84273
:1030E00002D1042501E028E00725BD402543C6F8AC
:1030F0000858DBF800405D464E689C43F60300D557
:103100001C432C60DEF8004075464E689C43B603B5
:1031100000D51C432C600C4D08352C684E689C4330
:10312000F60200D51C432C60074D0C352C684E6808
:103130009C43B60200D51C432C60521C102AFFF49D
:103140005DAFBDE8F88F0000003C0140443802400C
:10315000003001400000024000040240000802402C
:10316000000C0240001002400069084000D001201D
:103170007047426931EA020200D109048161704757
:103180000AB1816170470904FBE70000014800684B
:10319000000C7047002004E010B5FDF775FA022816
:1031A00016D00D480068800B0DD000BF00BF00BFD7
:1031B00000BF00BF00BF00BF00BF00BF00BF00BF17
:1031C00000BF401EF1D105490868401C086010BDD1
:1031D000BDE81040FDF770BA68390020D0380020F3
:1031E000094810B5016841F400710160016841F4BB
:1031F00080610160032000F069F80F2000F006F8FC
:1032000000F024F8002010BD003C024070B50D4DC8
:1032100004464FF47A712878B1FBF0F00A49096846
:10322000B1FBF0F000F0CCFA48B9102C07D2002224
:103230002146501E00F02AF800206C6070BD01206D
:1032400070BD00005C3900206839002070470028FC
:1032500009DB00F01F02012191404009800000F1CC
:10326000E020C0F88012704700280DDB00F01F023C
:10327000012191404009800000F1E020C0F8801158
:10328000BFF34F8FBFF36F8F70470000F0B40E4B4A
:103290001B680C46C3F30223C3F10705042D00D9B4
:1032A0000425191D072901D2002300E0DB1E012699
:1032B00006FA05F1491E214099409E40761E1640AF
:1032C0003143F0BC05F060BE0CED00E0064900F0B3
:1032D000070208684FF6FF03184040EA0220034A3D
:1032E00010430860704700000CED00E00000FA0594
:1032F0002DE9F0470E46050065D0DFF81481D8F8B7
:103300000000F7B200F00F00B04207D288F800705A
:10331000D8F8000000F00F00B04254D128683D4CAE
:10332000810712D5400703D5206840F4E0502060A3
:103330002878000703D5206840F4604020602068AA
:10334000A96820F0F000084320602878C0072DD03D
:10335000304968680839012812D0022813D00328A0
:1033600011D00968890700292DDA216821F00301AD
:1033700001432160FFF710FF814641F2883A0EE0D9
:1033800009688903EFE709688901ECE7FFF704FFA3
:10339000A0EB0901514502D90320BDE8F087206860
:1033A000696800F00C00B0EB810FEFD1D8F8001085
:1033B000404601F00F01B14207D90770006800F0E4
:1033C0000F00B04201D00120E7E72878400705D57B
:1033D0002068E96820F4E05008432060287800075E
:1033E00006D52068296920F4604040EAC1002060C9
:1033F00000F026F82168084AC1F30311515CC84067
:10340000064908600F20FFF701FF0020C5E7000014
:10341000003C024008380240D4920008683900207D
:103420000448054900680968044AC1F34231515C07
:10343000C84070476839002008380240E49200080C
:10344000154810B5006810F00C02144813D0144948
:10345000042A0FD0082A0ED10F4C241F226823689B
:1034600002F03F025B0207D52068C0F38810A0FB82
:10347000010106E0084610BD2168C1F38811A1FBD7
:1034800000010023FCF73EFF2168C1F30141491C04
:103490004900B0FBF1F010BD083802400024F400F0
:1034A00040787D012DE9F84F050076D02878DFF8C7
:1034B000F8B2BE4CC00749D0DBF800105846C1F343
:1034C0008101012908D00068C0F3810002280AD1D7
:1034D000201D0068400206D52068800336D5686844
:1034E0000028E2D032E06868B0F5803F10D0B0F537
:1034F000A02F206810D020F480302060206820F4B5
:10350000802020606868A0B1FFF746FE06460CE008
:10351000206840F48030F4E740F480202060F7E732
:10352000FFF73AFE801B642873D820688003F7D524
:103530000CE0FFF731FE064605E000BFFFF72CFE6A
:10354000801B6428F0D820688003F7D42878DFF83F
:10355000608280074FF000093ED5DBF80010584626
:1035600011F00C0F09D00068C0F3810002280BD1C4
:103570008D48001F0068400206D42068800715D5DA
:10358000E868012809D111E0E868B8B10120C8F85D
:103590000000FFF701FE064605E002E1FFF7FCFD33
:1035A000801B0228C0D820688007F7D520682969C9
:1035B00020F0F80040EAC10020600DE0C8F800905B
:1035C000FFF7EAFD064604E0FFF7E6FD801B022850
:1035D0001FD820688007F7D42878000722D5724EBC
:1035E000744869696C3671B101210160FFF7D4FD3F
:1035F000074604E0FFF7D0FDC01B022809D8306859
:103600008007F7D50EE0C0F80090FFF7C5FD07462C
:1036100005E083E0FFF7C0FDC01B02287ED83068BC
:103620008007F7D42878400768D5DFF87CA1002709
:103630000AF1380ADAF80000C0000BD4DAF80010FA
:1036400041F08051CAF80010DAF80000012700F0BC
:1036500080500090584E3068C00510D4306840F457
:1036600080703060FFF798FD009005E0FFF794FD53
:103670000099401A022851D83068C005F6D54A4E44
:10368000A868683601280FD00528306810D020F0CF
:1036900001003060306820F004003060A868B8B1E4
:1036A000FFF77AFD00900FE0306840F00100F4E78A
:1036B00040F004003060F7E7FFF76EFD0099411A13
:1036C00041F28830814264D830688007F4D50EE03A
:1036D000FFF762FD009007E0FFF75EFD0099411AD9
:1036E00041F28830814254D830688007F4D42FB139
:1036F000DAF8001021F08051CAF80010A869C0B3B0
:10370000DBF80010C1F3810102294AD002284846A3
:1037100007D0C8F86000FFF73FFD00E039E005463C
:103720003AE04746C8F86000FFF736FD064604E079
:10373000FFF732FD801B02282BD820688001F7D4C8
:10374000D5E907010843A96A1C4A490802EB01416F
:103750006A6A41EA8211084395F82C1040EA016137
:103760001148001F016001203866FFF715FD05466E
:1037700005E014E0FFF710FD401B022809D820687F
:103780008001F7D50BE000BFFFF706FD401B0228C4
:1037900002D90320BDE8F88F20688001F4D400200E
:1037A000F8E70120F6E70000083802400038024040
:1037B00000004742800E4742007000400000FFFFBB
:1037C00010B5401EB0F1807F01D3012010BD4FF035
:1037D000E02460610F21601705F0D6FB0020A06196
:1037E00007202061002010BD2DE9F04387B014218F
:1037F0006846FCF7D1FD31480024016841F08001A2
:103800000160016801F080010591016841F001014A
:103810000160016801F001010591016841F00201B8
:103820000160016801F002010591016841F00401A5
:1038300001600068224F00F004000590012272210F
:103840003846FFF79DFC0122DFF878905603314699
:103850004846FFF795FC722000900125CDE9015400
:10386000694638460394FFF7BBFB042000901648D6
:10387000CDE9010469463846FFF7B2FB03270397F9
:103880000096DFF84880CDE9015469464046FFF7CD
:10389000A7FBA803CDE90005CDE9024769464046EC
:1038A000FFF79EFB0096CDE9015469464846039414
:1038B000FFF796FB07B0BDE8F08300003038024008
:1038C0000004024000080240000011100000024005
:1038D0004FF0A04148698969084004F089B80000A8
:1038E0002DE9F04105461D4E86B0C0074FF000049B
:1038F0004FF002074FF00A080CD03046FEF792FF57
:10390000B0140090CDE90174CDE903486946304612
:10391000FFF766FBA8070DD53046FEF783FF4FF48F
:1039200000600090CDE90174CDE903486946304656
:10393000FFF756FBE8060DD53046FEF773FF4FF450
:1039400080600090CDE90174CDE9034869463046B6
:10395000FFF746FB06B0BDE8F08100000000024022
:1039600070B504460B4DC00703D0A9142846FFF7D5
:10397000ADFAA00704D54FF400612846FFF7A6FA78
:10398000E00606D52846BDE870404FF48061FFF799
:103990009DBA70BD000002400A4810B5C1780329E5
:1039A0000ED1C16802698A1AFF2A09D88278C9B281
:1039B000012A05D1C27004480844114600F0B0FE47
:1039C00010BD0000F0380020303B0020014800F01E
:1039D0002DB800007C9100080B48C169096809688E
:1039E0004A680146896A09680AB100290AD1826ACF
:1039F000D160426A00211171406A0168002901D03A
:103A000001200847704700007C9100080649086AB9
:103A10000068006842680846806A00680AB10028A9
:103A200001D1896A086170477C91000870B504462D
:103A300000202268916811F0680F3BD04D064FF0CE
:103A4000010327D5106800050BD4127BA06A056816
:103A5000C168A94215D2416899B14D1C45600A70F0
:103A60000FE09289A16A0D68C868A84209D24D6822
:103A70003DB1681C48602A70A16A150A421C4A6060
:103A80000570A06AC168491CC16020688168606ACD
:103A9000437102200A0703D5626A40F002005371A5
:103AA000890618D5616A8B7121680A680A6040F03E
:103AB000040010E0C8071BD05068400618D5104617
:103AC000A16A00F016F810B101280DD005E0A16A36
:103AD000206800F030F800280AD0616A09680029DF
:103AE00006D0BDE870400847626A00211171F4E712
:103AF00070BD30B50D68CA68AA421AD203681B05AA
:103B000006D4037B486860B1441C4C60037008E035
:103B100083894C682CB1204623701C0A831C4B609F
:103B20004470521CCA60AA4201D1012030BD00205D
:103B300030BD022030BD10B50B680A699A421CD214
:103B40000268120508D48A681AB1531C8B60127877
:103B500000E00A7E02730BE08B683BB11A461B78CB
:103B6000941C8C60527843EA022200E00A8B828126
:103B70000869401C0861002010BD022010BD000033
:103B80002DE9F04310F03F0300D14023DFF890907F
:103B900005062248D9F804404FF000074FF0010C09
:103BA0001DD438E000240825D9F8041012E000BF25
:103BB000C0F8B8720E46761EFDD1D0F83482C0F837
:103BC000B8C20E46761EFDD164085B1E44EAC814D6
:103BD0006D1E01D0002BEBD1EC4002F8014B002B05
:103BE000E0D1BDE8F08300BF11F8012B08250FE0FC
:103BF000C0F8B422C0F8B8722646761EFDD1C0F8CF
:103C0000B8C22646761EFDD152085B1E6D1E02D03C
:103C1000002BEDD1E5E7002BE6D1E2E700004042C2
:103C2000143B0020034A52780AB100F005B800F0B6
:103C300047B90000143B00202DE9F04F9C4C85B0A3
:103C400001258A460646C4F8B4520027C4F8B87263
:103C5000C4F8B852C4F8B402C4F8B872C4F8B85280
:103C60004008C4F8B402C4F8B872C4F8B8523118A5
:103C7000B008C4F8B402C4F8B872C4F8B852014429
:103C8000F008C4F8B402C4F8B872C4F8B8520844D2
:103C9000C4F8B402C4F8B872C4F8B852C4F8B47224
:103CA000C4F8B872C4F8B852C4F8B452C4F8B872C0
:103CB000C4F8B8524FF4005B59467E48FFF706F946
:103CC000DFF8F49199F81800010005D0C4F8B87233
:103CD000C4F8B852491EF9D1B846C4F8B872D4F83D
:103CE0003422C4F8B852C4F8B872D4F83432C4F8E4
:103CF000B85242EA4302C4F8B872D4F83412C4F895
:103D0000B85242EA8107012F1CD0022F7DD0042F28
:103D10007BD0213006D04146C4F8B812C4F8B8525E
:103D2000401EF9D1C4F8B45214216846FCF734FBA4
:103D30000320CDE90280CDE900B569465D48FFF773
:103D40004FF9AFE0B10739D5002210462021C44613
:103D5000C4F8B8C2D4F83432C4F8B852520818447F
:103D600042EAC372491EF3D1E046C4F8B8C2D4F89F
:103D70003412C4F8B8524840C00700D00827BAF13E
:103D8000000F01D0CAF8002099F8180030B1414660
:103D9000C4F8B812C4F8B852401EF9D1C4F8B452ED
:103DA00014216846FCF7F8FA0320CDE90280CDE93A
:103DB00000B569463F48FFF713F92DE030B14146A1
:103DC000C4F8B812C4F8B852401EF9D1C4F8B452BD
:103DD00014216846FCF7E0FA0320CDE90280CDE922
:103DE00000B569463348FFF7FBF80022DAF8000017
:103DF00020214346C4F8B402C4F8B832C4F8B8521B
:103E000002444008491EF5D100E018E0C4F8B4228D
:103E1000C4F8B832C4F8B852300603D52748416810
:103E2000C9F8081099F80C00E0B34146C4F8B48210
:103E3000C4F8B812C4F8B852401EF9D132E099F86B
:103E4000191049B1B10707D521214346C4F8B8324A
:103E5000C4F8B852491EF9D130B14146C4F8B8127D
:103E6000C4F8B852401EF9D1C4F8B45214216846BF
:103E7000FCF792FA0320CDE90280CDE900B569464E
:103E80000C48FFF7ADF899F8190058B1B00709D4FC
:103E90004146C4F8B4822120C4F8B812C4F8B8521C
:103EA000401EF9D1C4F8B45205B0F8B2BDE8F08FA5
:103EB0000000404200000240143B0020001000E0DF
:103EC0002DE9F04FF24C002385B001258B460646C4
:103ED000C4F8B4521946C4F8B832EE4F78680246B6
:103EE000521EFDD1C4F8B8520246521EFDD1C4F88C
:103EF000B462C4F8B8120246521EFDD1C4F8B852DA
:103F00000246521EFDD103EB060C7308C4F8B4320E
:103F1000C4F8B8120246521EFDD1C4F8B852024687
:103F2000521EFDD19C44B308C4F8B432C4F8B81290
:103F30000246521EFDD1C4F8B8520246521EFDD1AF
:103F4000F2086344C4F8B422C4F8B8124FEA000C73
:103F5000BCF1010CFCD1C4F8B8528446BCF1010C90
:103F6000FCD11A44C4F8B422C4F8B8120246521E56
:103F7000FDD1C4F8B8520246521EFDD1C4F8B412A5
:103F8000C4F8B8120246521EFDD1C4F8B852024617
:103F9000521EFDD1C4F8B4528846C4F8B812014686
:103FA000491EFDD1C4F8B852401EFDD14FF4005156
:103FB000B948FEF78BFF3A7E11000DD07868C446F1
:103FC000C4F8B8C203465B1EFDD1C4F8B85203461C
:103FD0005B1EFDD1521EF3D14246C4F8B882786808
:103FE00003465B1EFDD1D4F83432C4F8B85284467F
:103FF000BCF1010CFCD1C4F8B8228446BCF1010C20
:10400000FCD1D4F834C2C4F8B8528046B8F10108E3
:10401000FCD143EA4C039146C4F8B8220246521E32
:10402000FDD1D4F834C2C4F8B852BA460246521E82
:10403000FDD143EA8C07012F23D0022F77D0042F24
:1040400075D021310CD04B46C4F8B8320246521E0E
:10405000FDD1C4F8B8520246521EFDD1491EF3D11B
:10406000C4F8B45214216846FCF796F94FF4005096
:104070008DE821020320039069468748FEF7B0FFD0
:1040800000E1B20754D5002319462022C4F8B892A3
:104090004FEA000CBCF1010CFCD1D4F834C2C4F8D6
:1040A000B8528046B8F10108FCD15B08614443EA8C
:1040B000CC73521EEAD12246C4F8B892D046844648
:1040C000BCF1010CFCD1D2F834C2C2F8B852401E87
:1040D000FDD181EA0C01C80700D00827BBF1000F11
:1040E00001D0CBF8003098F8181079B1DAF8040054
:1040F000CC4600BFC2F8B8C203465B1EFDD1C2F871
:10410000B85203465B1EFDD1491EF3D1C2F8B4522A
:1041100014216846FCF740F94FF400508DE8210265
:104120000320039069465C48FEF75AFF41E05CE0DB
:1041300061B14B46C4F8B8320246521EFDD1C4F8F4
:10414000B8520246521EFDD1491EF3D1C4F8B452F2
:1041500014216846FCF720F94FF400508DE8210245
:104160000320039069464C48FEF73AFFDBF8001045
:10417000DAF804004FF0000C2023A046C8F8B4126F
:10418000C8F8B8920246521EFDD1C8F8B85202468D
:10419000521EFDD18C4449085B1EEFD1C8F8B4C251
:1041A000C8F8B8920146491EFDD1C8F8B852401E61
:1041B000FDD1300603D539484068CAF808009AF89E
:1041C0000C00E0B34A46C4F8B492DAF8041000BF19
:1041D000C4F8B8220B465B1EFDD1C4F8B8520B469A
:1041E0005B1EFDD1401EF3D14CE09AF819207AB144
:1041F000B2070DD52123C846C4F8B8820246521E24
:10420000FDD1C4F8B8520246521EFDD15B1EF3D157
:10421000D04669B14FEA0903C4F8B8320246521ECB
:10422000FDD1C4F8B8520246521EFDD1491EF3D149
:10423000C4F8B45214216846FCF7AEF800E021E05F
:104240004FF400508DE82102032003906946124884
:10425000FEF7C6FE98F81910A1B1B10712D44B466B
:10426000C4F8B492D8F80410212200BFC4F8B832C0
:104270000846401EFDD1C4F8B8520846401EFDD184
:10428000521EF3D1C4F8B45205B0F8B2BDE8F08FB5
:1042900000004042143B002000000240001000E0FB
:1042A000F0B5124A0024234627464FF0010C0E4D6C
:1042B000526816E013B911F8014B0823E60702D043
:1042C000C5F8B4C201E0C5F8B472C5F8B8721646B4
:1042D000761EFDD1C5F8B8C21646761EFDD164081B
:1042E0005B1E401EE6D2F0BD00004042143B0020A1
:1042F0008221002002F044BF70B50C46C1780068EE
:104300000B4D61F31F60A97801290CD0002000211A
:10431000E9702070010A6170010CA170000EE0705C
:104320004FF0041070BD00F0B7F90028EFD0F0E7AF
:10433000F03800202DE9F0410078194C00F001061A
:104340000025E0780F4600F00100B0421FD076B1A2
:104350006078022804D1607910B1FFF7C9FF657158
:104360000F48C01D057045702571E5602561A07876
:1043700001280ED1304600F0DDF950B1E6706078CA
:10438000022804D1074801210068FCF71FFF3D7097
:1043900001E0FF2038704FF00110BDE8F08100000F
:1043A000F0380020D83800202DE9F0410D460746AE
:1043B000FEF754FC0646FEF735FC174A04465178D2
:1043C00001290BD05FF0000405F8016B200A05F805
:1043D000014B012905F8010B08D017E038883C286B
:1043E00000D93C208442EFD90446EDE7136921004F
:1043F000184607D0094EC0B2375C401C05F8017B57
:10440000491EF8D118191061FFF7C6FAE41C44F4EC
:104410000030BDE8F0810000F0380020303B002083
:1044200070B5067800250C46F00704D0FEF716FCA0
:1044300004F8010B0125B00709D5FEF7F3FB207046
:10444000010A6170010C000EA170E0702D1D45F491
:10445000803070BD2DE9F041104C06780F46A078F1
:10446000012802D1002000F0A1F900251EB1012E83
:1044700003D0002007E0012003E0012000F096F9BE
:1044800008B1A67000E0A570E57008B13D7001E0CC
:10449000FF2038704FF00110BDE8F081F0380020A7
:1044A00070B50446FEF7DAFB0546FEF7BBFB257048
:1044B0006070010AA170010CE170000E20710520EE
:1044C00070BD0000084810B501698269114401619E
:1044D00000214171FFF760FA044801210068BDE83E
:1044E0001040FCF773BE0000F0380020D8380020E0
:1044F000084AD378DB0705D1007840B1012806D0FF
:10450000022804D0FF2008704FF00110704750704F
:104510000020F8E7F03800200349CA1F12798B5CAD
:1045200003438B5470470000F738002030B5234810
:1045300093B00024016841F080510160006800F0F0
:10454000805011901E48016821F4404141F400411F
:1045500001600068022500F44040119001200090A5
:10456000000401908001CDE90650192008904FF415
:10457000A870099004200A9007200B906846FEF767
:1045800091FF00B1FEE70F20CDE90C054FF48050FC
:10459000CDE90E4002210CA81094FEF7A9FE00B14F
:1045A000FEE7FEF7F3FD41F20101884204D1054820
:1045B000016841F48071016013B030BD40380240A1
:1045C00000700040003C024070B5194C2068194A48
:1045D00010F00C01184804D0184D042903D0082904
:1045E00003D002601BE0056019E01149091F0B6848
:1045F000C3F380560B6803F03F0316B1B5FBF3F22B
:1046000001E0B2FBF3F20B680968C3F388135A4365
:10461000C1F30141491C4900B2FBF1F1016021687D
:10462000074AC1F30311515C0268CA40026070BDC1
:10463000083802400024F4006839002040787D01E9
:10464000D49200081048016841F4700101600F48DD
:10465000016841F0010101600C4A0021083211603B
:1046600002680B4B1A400260031D0A4A1A60026876
:1046700022F48022026005480C300160024958068D
:10468000803908607047000088ED00E00038024083
:10469000FFFFF6FE1030002470B506461C48864227
:1046A00000D906461B4C1C4DE078C00710D00021F5
:1046B000AA6A16209047E86A8047800708D5686A8A
:1046C0008047E1680844E0600021AA6A1920904709
:1046D000AA6A31460120904710B10020207070BDB9
:1046E00001202070E078C10710D080070AD4E0686C
:1046F0000A4A00F03F01C1F1400152FA80F06161C5
:10470000AA6990470121AA6A16209047304670BDD9
:1047100080969800F03800202C920008303B002052
:10472000024A5161024A926910470000F0380020A5
:104730002C92000870B5134D134C80B128780028D6
:104740000CD0012068610146A2691048904720B949
:104750000121A26A1620904790B1002070BD00216F
:10476000A26A16209047E06A8047800708D5606AF1
:104770008047E9680844E8600021A26A1920904750
:10478000012070BDF03800202C920008303B002042
:1047900010B5054CE06A8047800703D5606ABDE824
:1047A00010400047002010BD2C92000810B5104AA0
:1047B0000021104C117060B1A1680F48884708B102
:1047C000002010BD21690220884778B1E068804749
:1047D000F6E70021A26A162090470021A26A19205C
:1047E0009047216900208847E0688047012010BD7C
:1047F000F03800202C920008E9480008014A00F037
:10480000B9B80000EC91000801480068704700004A
:10481000EC910008014800F00BBC0000EC9100088E
:104820000148006970470000303D0020014800F059
:1048300035BC0000EC910008014840697047000059
:10484000303D0020014800F07ABC0000EC910008E7
:10485000014900F072BD0000EC910008014900F030
:10486000E5BD0000EC910008014A00F09BBE00008D
:10487000EC910008014A00F0D7BE0000EC9100085E
:10488000014900F007BF0000EC91000870B5124D1F
:1048900006000B4614461BD0D3B1CCB1E96AC87AE6
:1048A00042074FF0FF3015D5C968022912D1296B94
:1048B00003202A46C8612146184600F073FE0028EE
:1048C00008D12A4621463046BDE8704000F0ACBE13
:1048D0006FF0040070BD0000EC910008014800F08A
:1048E00006BF0000EC9100082DE9F0410546800765
:1048F00028D51C4C2769E06861690844E06000F035
:104900003F01C1F14001C61BC1F58072B24207D31D
:10491000154A52FA80F0154A61619269904701E0A8
:104920000320E0700120A071607802280AD1C7F34B
:104930000800C0F50070B04204D80D48012100689D
:10494000FCF744FCA80602D58020FFF7E5FD15F42E
:10495000607F04D0BDE8F0414020FFF7DDBDBDE839
:10496000F0810000F0380020303B00202C9200083D
:10497000D83800202DE9F04F1446D26A0E468FB089
:10498000D17A4FF0FF3989077ED54FF0000AC7B2C0
:10499000A7F115035546D0466FF0010C062B74D2D3
:1049A000DFE803F07CB0031F384F7EB1216B91F834
:1049B000210000286AD1012081F82100216B81F8B3
:1049C00020006068C16841F0810189E0206B90F8A7
:1049D0002000002834D06068C16821F08001C160E7
:1049E00013E06068C16821F0C001C160606A60B115
:1049F000206B90F8210040B16068416921F080018E
:104A00004161606A0068FEF737F9216B002081F888
:104A100020003FE06068C16821F02001C160A06A09
:104A200058B1E06A407940B16068416921F04001C5
:104A30004161A06A0068FEF71FF9E16A0020487131
:104A400056E16068C16821F0E001C160606A60B150
:104A5000206B90F8210040B16068416921F080012D
:104A60004161606A0068FEF707F9A06A58B1E06A20
:104A7000407940B16068416921F040014161A06A1C
:104A80000068FEF7F9F802E07BE091E09EE0E16A61
:104A900000204871216B81F8210029E1E06800289D
:104AA0006FD0FEB1D168062911D080880290022013
:104AB0000390E06802A900890490E06840890590AD
:104AC000E068C0880690E0680068FEF789FAE06A4E
:104AD000C17A41F00801C1726068C16841F0080103
:104AE000C16005E16068C16821F00801C160E06A49
:104AF000C17A21F00801C172E06AC06806289FD01F
:104B0000E06850E020690028CAD0CEB3D1680629F9
:104B100013D0042911D080880290022003902069CC
:104B200002A9008904902069408905902069C08805
:104B3000069020690068FEF753FAE06AC17A41F0F6
:104B40001001C1726068416941F001014161606812
:104B5000016941F0400101616068C16841F01001E4
:104B6000C160E06A407908B1A06A20B96068C16894
:104B700041F02001C1606068C16841F00401AFE705
:104B800000E0BAE06068C16821F00401C160E06A39
:104B9000C17A21F01001C172E06AC068062806D00F
:104BA000042804D0206981880068FEF78FF99FE00F
:104BB000517959B9216B8B4691F8211031B961684F
:104BC000CB681B0706D50B685B0603D460460FB0A5
:104BD000BDE8F08F06EB061C0CEB4C0CCDF830C09A
:104BE00006EB061C0CEB461C6FF00603CDF820C04C
:104BF000152F7BD2DFE807F08A0B0DF414181C8AFE
:104C00008A8A8A8A8A8A8A8A3134535E7E0001219E
:104C100014E0217889076AD54FF4106502210DE070
:104C20004FF00808042109E04FF00208052105E0D3
:104C3000217889065BD54FF0200806218B4610F4B9
:104C4000E0634FF4805168D06FF00802B3F5807FC5
:104C500076D0B3F5E06F76D15BE0ABF81A6047E051
:104C6000D068052849D126B3486940F0040048615E
:104C7000A0688047ED49B1FBF0F1012001FB00F293
:104C8000B24202D8401CFF28F8D9B0F5807F34D05A
:104C900061688A6922F0FF0202438A6128E0D068D5
:104CA00006282AD1FF2E28D8886920F47F40304377
:104CB00088611DE0D06806281FD1A0688047DB49C5
:104CC000B1FBF0F15FF0010001FB00F2C8235A4391
:104CD0000C9BB2EB430F03D2089BB2EB430F02D8FD
:104CE000401C4028F0D3402807D0D1E70EE077E001
:104CF00000206CE7D068062801D0484667E7002E00
:104D0000F6D0486940F010004861F1E76FF0030009
:104D10005DE710F4405F16D005E010F4405F02D06C
:104D200045F020058A4610F4405214D08A420CD037
:104D3000B2F5005F0CD06FF0090048E700E002E038
:104D400010F4405FECD0104641E74AF4806101E086
:104D50004AF4C0618A4610F4404113D0B1F5804F47
:104D600008D0B1F5004F08D0B1F5404F08D06FF032
:104D70000A002CE745F4005504E045F4405501E0F5
:104D800045F4805510F4403216D04FF480316FF066
:104D90000B038A4216D049008A421AD04FF44031A0
:104DA0008A421DD1226817061AD5D20518D5894620
:104DB00048F4E061884601E04FF00009BBF1020FC2
:104DC00010D025E0227812060AD5894648F4807171
:104DD000F0E72288D20503D5894648F4C061E9E7A7
:104DE0001846F4E610F4802107D0B1F5802F02D0E8
:104DF0006FF00C00EBE645F4806510F4002007D05E
:104E0000B0F5002F02D06FF00D00E0E645F400751C
:104E1000A068804700EBC00101EB0011B000B1FBBE
:104E2000F0F100906420B1FBF0F7A068804700EB40
:104E3000C00101EB00110098B1FBF0F6A0688047BB
:104E400000EBC00101EB00110098B1FBF0F1642010
:104E5000B1FBF0F06FF01801484306EB80003221FF
:104E600001EB00116420B1FBF0F6A06867F31F1698
:104E700080470001B1B2B0FBF1F000096421484362
:104E80000C99B0EB410F03D20899B0EB410F02D857
:104E90006FF007009BE66068C16821F40051C160B3
:104EA00060688660E16AC1F80CB0E16AC1F81090F0
:104EB000E068E8B1E16ACA68062A02D0C97A09073F
:104EC00012D58088029002200390E06802A9008930
:104ED0000490E06840890590E068C0880690E0682A
:104EE0000068FEF77DF803E081880068FDF7EEFFBB
:104EF0002069F8B1E16ACA68042A04D0062A02D0FF
:104F0000C97AC90604D481880068FDF7DFFF11E083
:104F10008088029002200390206902A900890490F1
:104F20002069408905902069C08806902069006842
:104F3000FEF756F8606948B1E16AC968022946D0AF
:104F4000062944D081880068FDF7C0FFA069A0B1A0
:104F5000B9F5803F4ED0B9F5403F4BD080880290E4
:104F600001200390A06900890490A0694089059000
:104F7000A06902A90068FEF733F8E069A0B1B9F5AD
:104F8000003F45D0B9F5403F42D0808802900020D4
:104F90000390E06900890490E06940890590E06928
:104FA00002A90068FEF71CF86168C1F80CA06068EF
:104FB00005616168C1F814806068C16841F40051FE
:104FC000C160E06AC17A41F00401C17290E6808854
:104FD000029002200390606902A900890490606930
:104FE000408905906069C088069060690068FDF797
:104FF000F7FFABE78088029002200390A069008948
:105000000490A06940890590A069C0880690AFE728
:105010008088029002200390E06900890490E06992
:1050200040890590E069C0880690B8E700CA9A3BBD
:1050300008B5009921F001010091C16A096911B117
:10504000B1F5803F0AD1C06940B181880068FEF7A0
:105050008BF818B9009840F001000090009820F0FB
:1050600002000090009820F008000090009820F0C6
:1050700004000090009961F300000099490861F371
:1050800041000099890861F382000099C90861F321
:10509000C3000099090961F31F1008BD08B5016B31
:1050A00091F8211021B1009941F00101009107E030
:1050B00041680968009A8911491C61F30002009255
:1050C000C06A0099427962F34101009182790099A6
:1050D00062F382010091C279009962F3C3010091E9
:1050E000027A009962F304110091427A009962F306
:1050F00045110091817A009861F386100090009923
:1051000061F300000099490861F3410000998908A2
:1051100061F382000099C90861F3C300009909098D
:1051200061F304100099490961F345100099890958
:1051300061F386100099C90961F3DF1008BD2DE9FC
:10514000F041446822680021E5680B461540AD0631
:105150000F464FF001064FD5C56A95F805C0BCF162
:10516000000F03D0ED68022D04D007E06168EE71F6
:10517000202141E0056BED69012D2CD063689BB2C5
:10518000056BAC6804F1010CC5F808C023704468D5
:10519000E46865050BD4E40409D5056B4FEA132CCC
:1051A000AC6804F1010EC5F808E084F800C0056B96
:1051B0002C69641C2C61056B2D68AC421CD14468C1
:1051C000E56825F01005E560C46A6771C46AE468A3
:1051D000022C02D00FE06468D2E7046BE569E76156
:1051E000012D04D0022D06D0032D05D101E00121AF
:1051F00002E0042100E002214568EC681440E40666
:1052000002D56C6841F04001EC681440240651D589
:10521000046B94F820C0BCF1000F04D0EB6843F09D
:105220000103EB6046E0D4F814C06568654519D009
:10523000C36ADB68022B02D1E369022B2FD0E3683B
:105240005D1CE56044681B78E4685FEA445C09D44F
:10525000E40407D5046B05F1010CC4F80CC02C78EC
:1052600043EA0423046B65696D1C656144686360EF
:10527000036B5C685B699C421CD14368DC6824F06A
:105280008004DC604368DC6844F04004DC60036B4D
:1052900083F82170C36ADC68022C02D008E0638BBB
:1052A000E0E7046BE469012C04D1DB7ADB0601D46E
:1052B00041F001014368DC681440640605D5DC68F0
:1052C00024F04004DC6041F00801130705D5436871
:1052D0005B68C36A41F02001DE71930705D543681E
:1052E0005B68C36A41F480715E72D30705D043687E
:1052F0005B68C36A41F400719E72D30508D54368A8
:105300001C6824F480741C60C36A41F080011E7222
:10531000920506D54268136823F40073136041F4C4
:105320008061002907D0C06A0268002A03D0BDE866
:10533000F04108461047BDE8F08110B50C46C96A37
:10534000CA7AD20701D0002010BD0860E16A0020AF
:105350000871E16A4871E16A8871E16AC871E16ABD
:105360000872E16A4872E16A8872E16AC860216B7A
:1053700081F821002421206BFBF70EF8E06810B1C2
:105380000068FDF7A3FA206910B10068FDF79EFAE6
:10539000606910B10068FDF799FAA06910B1006862
:1053A000FDF794FAE06910B10068FDF78FFAE16A41
:1053B0000120C872C7E7000070B51A4A174B184C95
:1053C000194D111D984203D10E6846F010060BE0EE
:1053D000A04204D1166846F40036166005E0A842E3
:1053E00003D10E6846F020060E6000BF00BF00BF6C
:1053F00000BF984203D1086820F010000BE0A042E3
:1054000004D1106820F40030106070BDA842FCD1B7
:10541000086820F02000086070BD00000010014006
:105420000044004020380240001401402DE9F84FAC
:10543000594EDFF86091594FDFF864A10C46A6F190
:1054400004080025C0B3022807D0012802D0681F35
:10545000BDE8F88F6FF00300FAE7E06AC17ACA0787
:105460005CD0890759D40571E06A4571E06A85719D
:10547000E06AC571E06A0572E06A4572E06A8572A9
:10548000206B80F82150206B4583206BC561206B19
:1054900080F82050E06AC560E06A0561E16A032097
:1054A000C872606848453CD1306840F010003060F8
:1054B000306800F010004AE0FFE794F92000FDF7A3
:1054C000D3FE6068484503D1306820F010000DE03D
:1054D000B84206D1D8F8001021F40031C8F8001005
:1054E00005E0504503D1306820F020003060E06ACC
:1054F0000571E06A4571E06A8571E06AC571E06A2C
:105500000572E06A4572E06A8572206B80F821506E
:10551000E06AC17A21F00201C17238E04FF0FF3039
:1055200096E7B8420AD1D8F8001041F40031C8F823
:105530000010D8F8000000F4003008E0504507D112
:10554000306840F020003060306800F020000090AB
:1055500094F920100120002909DB01F01F0200FA54
:1055600002F24909890001F1E021C1F8802294F991
:105570002010002908DB01F01F0290404909890032
:1055800001F1E021C1F800016068FFF715FF00207C
:105590005EE7000000100140443802400044004033
:1055A0000014014070B5030007D031B1D06AC47A4D
:1055B000640705D44FF0FF3070BD6FF0040070BD7C
:1055C00040796FF0010401282CD05068C56825F09F
:1055D0002005C560106B0160D56A00202872D56A6D
:1055E0006872D56AE871D56AA872156BAB60136BE7
:1055F0001861D36A012058715068C36843F03003C2
:10560000C360D06AC06802280AD1106BC3693BB975
:105610000223C361106B1A3000F006F8801C01D021
:10562000002070BD204670BD70B5144638B131B150
:10563000E26AD27A520705D44FF0FF3070BD6FF0A6
:10564000040070BD236B6FF0010593F82120FAB9B7
:10565000012283F82120236BD860206B4160236BEB
:1056600000205861E06AC06802280AD1206BC36933
:105670003BB9C261206B22461830FFF793FF801CB4
:1056800006D06068C16841F08001C160002070BD33
:10569000284670BD10B54FF400334FF0FF32A0B173
:1056A000012805D002281DD003281BD0101F10BDD3
:1056B000C86A006908B1984212D18869A8B1818886
:1056C00000680022FDF75CFD0FE0C86A006908B1C0
:1056D000984205D1886940B1818800680122F1E7CC
:1056E000104610BD6FF0030010BD002010BD10B5B6
:1056F0000446C06818B181880068FDF7E7FB20699F
:1057000018B181880068FDF7E1FB606918B18188F4
:105710000068FDF7DBFBA06918B181880068FDF720
:10572000D5FBE06918B181880068FDF7CFFBA16A5D
:10573000002009B109680860616A09B10968086058
:10574000E16AC872002010BD01480068704700007F
:10575000E89100080146002003F0E0BA0A4601463D
:10576000002003F0E3BA000007490978884209D213
:10577000064951F8200028B1C16819B1006808B184
:1057800000207047212070472C93000830930008B8
:105790002DE9F04100250A4E07462C4656F8240014
:1057A00038B10078B84204D1204600F015FE00B1AF
:1057B0000546641C14F0FF04F0D02846BDE8F081D3
:1057C000849300082DE9F04100250A4E07462C4637
:1057D00056F8240038B10078B84204D1204600F0D1
:1057E0004DFE00B10546641C14F0FF04F0D02846BD
:1057F000BDE8F081849300082DE9F05F6849054613
:10580000002009788D4232D2DFF8989159F825109E
:1058100000292CD0644951F82510CC68002C26D0E2
:1058200094F8A010C1F34112012A20D1DFF87CA125
:105830005F4F11F01F0107D001291AD002293FD074
:10584000032914D10026A7E000260DE05AF82610FF
:105850000978A94206D159F82610D4F8AC00884737
:10586000002804D1761CF6B239788E42EED3BDE81A
:10587000F09F0026BB461EE05AF8268098F80010DC
:10588000A94216D15FF0000707EBC70208EB4201FF
:105890000A7952B1B4F8A42049798A4205D159F85D
:1058A0002610D4F8AC00884718B97F1CFFB2042F2B
:1058B000EAD3761CF6B29BF800108E42DCD3D6E712
:1058C0000026BB4654E000BF5AF8268098F8001026
:1058D000A9424BD15FF0000707EBC70208EB42017A
:1058E0000A79EAB38A7922B1B4F8A420CB799A4232
:1058F00030D00A7A22B1B4F8A4304A7A934229D03F
:105900008A7A22B1B4F8A420CB7A9A4222D00A7BB8
:1059100022B1B4F8A4204B7B9A421BD08A7B22B1DF
:10592000B4F8A420CB7B9A4214D00A7C22B1B4F8FC
:10593000A4204B7C9A420DD08A7C22B1B4F8A420DA
:10594000CB7C9A4206D00A7D52B1B4F8A420497D9E
:105950008A4207D159F82610D4F8AC00884700E0F5
:1059600000E018B97F1CFFB2042FB5D3761CF6B245
:105970009BF800108E42A7D379E700BF5AF8261093
:105980000978A94206D159F82610D4F8AC00884706
:10599000002894D1761CF6B239788E42EED366E7B1
:1059A0002C930008D09300083093000884930008DB
:1059B000349300082DE9F05F684905460020097816
:1059C0008D4232D2DFF8989159F8251000292CD059
:1059D000644951F82510CC68002C26D094F8A0100A
:1059E000C1F34112012A20D1DFF87CA15F4F11F0F1
:1059F0001F0107D001291AD002293FD0032914D151
:105A00000026A7E000260DE05AF826100978A942E2
:105A100006D159F82610D4F8AC008847002804D1E4
:105A2000761CF6B239788E42EED3BDE8F09F0026A0
:105A3000BB461EE05AF8268098F80010A94216D1FD
:105A40005FF0000707EBC70208EB42010A7952B189
:105A5000B4F8A42049798A4205D159F82610D4F81F
:105A6000AC00884718B97F1CFFB2042FEAD3761C1C
:105A7000F6B29BF800108E42DCD3D6E70026BB4678
:105A800054E000BF5AF8268098F80010A9424BD184
:105A90005FF0000707EBC70208EB42010A79EAB39F
:105AA0008A7922B1B4F8A420CB799A4230D00A7A0C
:105AB00022B1B4F8A4304A7A934229D08A7A22B12A
:105AC000B4F8A420CB7A9A4222D00A7B22B1B4F84F
:105AD000A4204B7B9A421BD08A7B22B1B4F8A4202D
