:020000040800F2
:10000000284700201D0200082502000827020008DA
:10001000290200082B0200082D0200080000000041
:100020000000000000000000000000004102000885
:100030003102000800000000D9020008E9020008AF
:1000400037020008370200083702000837020008AC
:10005000370200083702000837020008370200089C
:10006000370200083702000837020008370200088C
:10007000370200083702000837020008370200087C
:1000800037020008370200083702000800000000AD
:10009000000000000000000000000000370200081F
:1000A000370200083702000837020008370200084C
:1000B000370200083702000837020008370200083C
:1000C000370200083702000837020008D538000858
:1000D00037020008654300083702000800000000EE
:1000E000370200083702000837020008000000004D
:1000F00000000000000000000000000037020008BF
:10010000000000003702000837020008370200082C
:1001100000000000000000000000000000000000DF
:10012000F1280008370200083702000837020008EB
:10013000370200080000000000000000000000007E
:100140000000000000000000000000000D38000862
:1001500009290008370200083702000837020008A2
:10016000370200083702000800000000000000000D
:10017000000000000000000000000000000000007F
:10018000000000003702000800000000000000002E
:1001900037020008DFF80CD000F028F900480047CB
:1001A000297E0008284700200246D2E84F0F411C54
:1001B000C2E8431F03B1F8E77047024652E8000F58
:1001C000411C42E8001303B1F8E77047024652E8C9
:1001D000000F42E8001303B1F9E77047024652E806
:1001E000000F830103D3BFF32F8F0020704700F06F
:1001F0000040084342E8000303B1F0E770470246BD
:1002000052E8000F800103D2BFF32F8F0020704708
:1002100042E8001303B1F3E7012070470648804726
:1002200006480047FEE7FEE7FEE7FEE7FEE7FEE7DB
:10023000FEE7FEE7FEE7FEE7114300089501000830
:100240001EF0040F0CBFEFF30880EFF30980816903
:1002500011F8021C91BB01B590E80F10E047BDE812
:1002600000508CE80300244B93E80600914208BF3D
:10027000704741B91EF0100F10D12049086820F0D6
:10028000010008600AE02CE9F00F1EF0100F08BF13
:100290002CED108AC1F838C081F822E01A6092F87B
:1002A0002210906B61F0FF0E1EF0100F08BFB0EC33
:1002B000108AB0E8F00F80F309887047104A13687D
:1002C0009942FAD801B552F821C00FC8E047BDE8FD
:1002D0000050CCF80000704701B500F041FCBDE8CB
:1002E0000140EFF3098CBEE701B500F07BFEBDE8ED
:1002F0000140EFF3098CB6E77819002034EF00E0F5
:10030000F87E00082DE9F05F0546002092469B46E6
:1003100088460646814640241BE02846414647461B
:10032000224600F053F853465A46C01A914110D362
:1003300011461846224600F03AF82D1A67EB0108DC
:100340004F4622460120002100F031F817EB00094A
:100350004E41201EA4F10104DFDC484631462A4606
:100360004346BDE8F09F40EA01039B0703D009E044
:1003700008C9121F08C0042AFAD203E011F8013B91
:1003800000F8013B521EF9D27047D2B201E000F8EA
:10039000012B491EFBD270470022F6E710B5134629
:1003A0000A4604461946FFF7F0FF204610BD202AF2
:1003B00004DB203A00FA02F1002070479140C2F1BC
:1003C000200320FA03F3194390407047202A04DBEE
:1003D000203A21FA02F00021704721FA02F3D040BE
:1003E000C2F120029140084319467047064C074D60
:1003F00006E0E06840F0010394E8070098471034F5
:10040000AC42F6D3FFF7CAFE148300083483000819
:1004100070B58C1810F8015B15F0070301D110F8C6
:10042000013B2A1106D110F8012B03E010F8016BF3
:1004300001F8016B5B1EF9D12B0705D40023521E76
:100440000DD401F8013BFAE710F8013BCB1A921CDE
:1004500003E013F8015B01F8015B521EF9D5A142DC
:10046000D8D3002070BD10B500F1280151E8002F4D
:1004700012B9BFF32F8F04E0531E41E8003404B1DA
:10048000F4E782B12C3001210AE0821CD2E84F3F10
:10049000C2E8441F04B1F9E71A0608BF10BD0830CE
:1004A00000680028F1D1002010BD10B584465CF82A
:1004B000303F8BB1CA784FF0000E05E01C46DB7868
:1004C00093420ED26368A646002BF7D10022C1E901
:1004D000012E00F12C0208E00022C1E90122C162D4
:1004E00009E0C1E9014E04F108021160BEF1000FFC
:1004F00018BF0EF1040CCCF80010283050E8001F93
:100500004A1C40E8002303B1F8E710BDD1E90123FC
:10051000002A0EBFC36293608B68191D002B08BFB1
:1005200000F130010A60704701480068704700BF61
:1005300010E000E007480178012905D10021017091
:1005400005484FF0806101600448016841F00101F5
:1005500001607047423E002004ED00E010E000E042
:100560004FF0FF307047000040B10B490968B1FB04
:10057000F0F0411E0020B0EB116F02D04FF0FF30C1
:100580007047064AFF231370054A06231360516023
:100590000449906008707047CC18002023ED00E0FB
:1005A00010E000E0423E002010B5930712D400F1A5
:1005B0002803D00718D153E8000F084203D1BFF336
:1005C0002F8F002005E020EA010243E8002404B157
:1005D000F1E710BD806AD20700EA010315D1002BB4
:1005E00018BF10BD002010BD53E8000F00EA010243
:1005F0008A4203D0BFF32F8F002005E020EA0102DA
:1006000043E8002404B1EFE710BD8B4218BF00207F
:1006100010BD000080B5124A4FF0000E02F1440CEC
:10062000624606E01A6991420BD3891A03F10C0263
:100630009E461368002BF5D10022C0E902E2016159
:1006400006E0C0E902E3016198601A69511A196174
:10065000BEF1000F18BF0EF10C0CCCF8000080BDED
:1006600064190020C16829B102690B691A440A6142
:1006700082688A608068044A00F10C03002808BF81
:1006800002F144031960704764190020EFF30581FB
:1006900029B9EFF3108111B9EFF3118111B16FF0A6
:1006A00005007047DFF804C000DF70473113000811
:1006B000EFF3058048B9EFF3108030B9EFF3118004
:1006C00018B9EFF31480C00702D10448007A7047CC
:1006D000DFF804C000DF70474513000864190020EC
:1006E000EFF3058028B9EFF3108010B9EFF3118014
:1006F00010B10348C0687047DFF808C000DF7047DA
:100700006419002051130008EFF3058028B9EFF3B6
:10071000108010B9EFF3118010B1034840687047A2
:10072000DFF808C000DF7047688200085D1300082A
:1007300080B507F08FFBEFF3058028B9EFF3108049
:1007400010B9EFF3118010B16FF0050080BDDFF834
:1007500008C000DF80BD00BF69130008EFF305800B
:1007600028B9EFF3108010B9EFF3118010B16FF0DA
:1007700005007047DFF804C000DF7047BD140008B3
:10078000F8B50546EFF3058014460E4628B9EFF399
:10079000108010B9EFF31180F0B16FF003000DB3CA
:1007A00003BBFEB12978FA291CD12846FFF75BFE6E
:1007B00078B16A6A074600F10C013046FFF7D3FDB5
:1007C0000CB1F87820703846FD6000F011FA002076
:1007D00008E06FF0020005E02846DFF80CC0314663
:1007E000224600DF01B0F0BD45150008EFF3058398
:1007F0002BB9EFF3108313B9EFF311830BB1002082
:100800007047DFF808C000DF704700BF25160008FA
:100810002DE9F0410646EFF3058090460D4628B9D4
:10082000EFF3108010B9EFF3118018B36FF00307E6
:10083000EEB1E3B9DDB13078FA2818D106F10C0039
:1008400000F0A6F888B1726A04460C302946FFF71A
:100850008AFD0027F920C4E9015684F80380A770B7
:100860002070204600F0C4F901E06FF0020738461E
:10087000BDE8F0813046DFF80CC02946424600DF73
:10088000BDE8F08159170008B0B50023D0B3C9B353
:10089000032A37D886460F315EF8084F21F0070C3F
:1008A000DEF804102346A4EB0E0421F00305641BBC
:1008B000644505D21C689E46002CF1D1002321E03E
:1008C000D0E9004363444360204450F8044C9C4208
:1008D0003EBF08384360DEF8041069B1DEF800005E
:1008E00021F0030141F80E004CEA02007144486017
:1008F000CEF800108E4603E04CEA0200CEF8040069
:100900000EF108031846B0BD80B5002218B311B32C
:1009100000F10803A1F1080C4FF0000E634506D06A
:100920001A461B689646002BF8D1002213E051F8B6
:10093000043C4268BEF1000F23F00303A2EB030264
:1009400042604FF0010219BFDCF80000CEF8000051
:10095000002041F8040C104680BD08B1420702D0C7
:1009600000221046704700221829FAD311F007031D
:10097000F7D11022C0E900120144A1F108038360FD
:10098000002341F8083C81684A600122C360E8E71F
:1009900010B5002817D0014600F1140252E8000FEC
:1009A00010B9BFF32F8F04E0036842E8003404B1AC
:1009B000F4E740B1043151E8002F531C41E8003402
:1009C00004B1F8E710BD002010BD00281FD0C26898
:1009D0008A421CD802698A4219D9B0B500F11402C2
:1009E00013680B60BFF35F8F52E8003F0C689C42B6
:1009F000F6D142E8001505B1F2E7043050E8001FD7
:100A00004A1E40E8002303B1F8E70020B0BD6FF0B4
:100A10000300704784460020BCF1000F18BF002976
:100A20001AD0CAB1C3B180B54FF0000E02FB01303D
:100A3000CCE9001ECCE90223CCE90403C1F101009A
:100A4000BDE8804003E09918013019600B4600288A
:100A5000F9D10020186001207047F8B5044680786D
:100A600068B3E56821462846FFF750FD002005F1F0
:100A70000C06214620703046FFF7A7FFA868E8B1B2
:100A80003046FFF785FFC8B10446284600F0F8F964
:100A9000002100220646002700F08AFA304600F0C6
:100AA00037FA81686A6A064604F10C00FFF75BFCBE
:100AB000F920A7702070F068E07025E0F8BDA56807
:100AC000A86808B3407883281ED1284600F0D8F9DA
:100AD000002100220646002700F06AFA304600F0A6
:100AE00017FA064680686A6A04F10C01FFF73BFCBE
:100AF000F06808B1E1780170277005F10C0021461B
:100B0000BDE8F840FFF761BF28462146BDE8F84040
:100B1000FFF7CBBC2DE9F041044600274FF0010858
:100B200019E025466469E878000714D52F76A8688F
:100B300088B1284600F0A4F900210022064600F002
:100B400037FAC5E90367F06A0028686100D00561DB
:100B5000F56285F81880002CE3D1BDE8F081000033
:100B600070B5224C04F1560504F15A0628E0D6E887
:100B70005F1F4A1C904200D80022C6E8532F03B1E1
:100B8000F5E788B2E16D51F82000002828D00178FF
:100B9000F139082914D8DFE801F005130813130B05
:100BA0000E131100216E88470AE0616E884707E046
:100BB000A16E884704E0E16E884701E0216F884715
:100BC000B4F85400D5E85F1F11B9BFF32F8F04E0CC
:100BD0004A1EC5E8532F03B1F4E709047FF4C7AFF9
:100BE0000020BDE8704000F0F1B800BF641900209B
:100BF00070B501461948B0F8542000F15603D3E807
:100C00005F4FA24202D8BFF32F8F04E0651CC3E8F8
:100C1000565F06B1F3E7A3B293421AD200F158032C
:100C2000D3E85F4F651CAA4200D80025C3E8565F91
:100C300006B1F5E7A2B2C36D43F82210417A00294C
:100C400019BF0121817206484FF0805108BF016031
:100C500070BD0220BDE8704007F0FAB864190020AA
:100C600004ED00E010B58168B1B100F10C01D1E8EC
:100C70005F2F12B9BFF32F8F04E0531EC1E8543F1A
:100C800004B1F4E7110407D000F0FAF800210022C3
:100C9000BDE8104000F08CB910BD0000012141708A
:100CA0000B4990F920C001F11C02114692684AB12B
:100CB00092F920306345F8DCC0E90221886002F136
:100CC0000C0103E00022C0E90221083108607047EE
:100CD0006419002010B54A1C11D01F4A002402F1EB
:100CE0002C0C624603E0891A03F110021C461368BB
:100CF000E3B1DA699142F6D24FF0010E18E01649DD
:100D0000002301F1300421461A460B6803F110015B
:100D1000002BF9D14FF0FF31002AC1614FF00001E3
:100D2000C0E9041216D002F1100413E04FF0000ED7
:100D3000002CC0E90434C16118BF04F1100CCCF8D8
:100D40000000BEF1000F08BF10BDDA6903F1140402
:100D5000511AD961206010BD64190020C26901696F
:100D6000531C0AD021B1CB691A44CA6142694A6155
:100D700042693AB90748C162704709B142694A619C
:100D800042691AB111610021416170470148016354
:100D9000704700BF64190020B0B50B4DEC6A1CB160
:100DA000E0690138E06100D0B0BD204600F087F86E
:100DB000204600F0A3F8246924B1E0690028F4D0AB
:100DC00000206061EC62B0BD64190020B0B505463A
:100DD0001448002D4469017A0CD0022905D194F9F8
:100DE000200095F92010814212DC2846BDE8B04071
:100DF00000F084B8022913D1456A8DB194F920001E
:100E000095F920108142D8BFB0BD284600F057F8B0
:100E10002046FFF743FF2846BDE8B04000F0A2B8E7
:100E2000B0BD00BF6419002010B50446002020802A
:100E3000A07881070DD5C00605D41048216B406FFE
:100E4000FFF762FD05E00D48216BD0F88400FFF745
:100E5000BCFDA078C00708BF10BD0849D1F88800C4
:100E600020B12146BDE81040FFF7AFBDD1F88000AA
:100E70002146BDE81040FFF747BD00BF64190020C0
:100E8000014680688268002A8A6000D0D160002113
:100E9000C160704791F920C00246806840B190F966
:100EA00020306345F8DAC1E902020C30916004E0B9
:100EB0000020C1E9020202F1080001607047C16828
:100EC00031B182688A60826802B1D1600021C1605C
:100ED000704710B504464078332818BF10BD94F809
:100EE0002320616A2046FFF75FFB30B101462046B0
:100EF0000022BDE8104000F05BB810BD01460120A3
:100F0000487002481C30FFF7C5BF00BF64190020BD
:100F100090F82210C9064FF0200158BF6021806B65
:100F20000844704770B50B4C0B480021A26D666EEB
:100F300000F0CAFD094D002EA86209D0E26D0848F4
:100F4000002100F0C1FDA864002818BF012070BD79
:100F5000012070BD68820008537E000864190020DB
:100F600055100008022141700149886106F07CBFDC
:100F70006419002010B50D4C02460020237A022B84
:100F800012D1636A83B160694270FFF7A3FE606AA1
:100F900081680029616202D004F11C02CA6000214C
:100FA000C160FFF7DFFF012010BD00BF6419002002
:100FB000B0B5044690F822001546C0064FF0200058
:100FC00058BF6020A26B81502046FFF7C7FE204625
:100FD0001DB1BDE8B040FFF7F9BEBDE8B040FFF776
:100FE0008DBF0000B0B5FFF79FFA194DE968286D75
:100FF00001310028E96000D08047FFF7CDFE0020D6
:10100000FFF7E4FE296C11B3AA69A86B90421CBFDC
:10101000C5E90E21B0BDE96B11B10139E96316D103
:10102000297A022913D16C6A8CB190F8200094F8C7
:10103000201081420BD12046FFF741FFA86BFFF73C
:101040005DFF2046FFF78EFF286CC5E90E40B0BD5E
:101050006419002082B00B480821D0E91820FFF75E
:10106000C5FB094D09496C46C5E91301214600221B
:101070004FF0FF33FFF784FB10B9DDE9001088471C
:10108000E86CF3E7688200086419002091100008FA
:1010900070B5144D6C6C1CB32069012601382061B9
:1010A0001CE02069E0B9E06808B1A168816068646B
:1010B00004F1180100220023E86CFFF7A9FB18B126
:1010C0000320214606F0C4FEE078012804D16169BE
:1010D0002046FFF79FFA00E066706C6C002CE0D1B0
:1010E00070BD00BF64190020EFF305822AB9EFF349
:1010F000108212B9EFF31182CAB16FF00302A0B1EE
:1011000099B90178F62910D10C30D0E85F1F11B9D8
:10111000BFF32F8F04E04A1EC0E8532F03B1F4E75A
:101120000022080408BF6FF0020210467047DFF883
:1011300008C000DF704700BF19180008EFF30581F1
:1011400029B9EFF3108111B9EFF3118111B16FF0EB
:1011500005007047DFF804C000DF70477118000811
:10116000EFF305832BB9EFF3108313B9EFF311837A
:101170000BB100207047DFF808C000DF704700BFE8
:10118000D1180008EFF3058129B9EFF3108111B9E7
:10119000EFF3118109B3B0B5E0B10178F62919D1A7
:1011A000C18900F10C02D2E85F3F994202D8BFF337
:1011B0002F8F04E05C1CC2E8554F05B1F3E7C289EC
:1011C00099B2914224BF6FF00200B0BDFFF710FD4D
:1011D0000020B0BD6FF00300B0BDDFF808C000DF35
:1011E000704700BF51190008DFF804C000DFFEE7B8
:1011F000A5190008EFF305822AB9EFF3108212B99E
:10120000EFF31182E2B1B0B56FF00304B0B1002981
:1012100014DB0278F12A11D14278042A02D16FF04E
:1012200002040BE000F1280252E8003F43EA010407
:1012300042E8004505B1F7E7FFF7DAFC2046B0BD0C
:10124000DFF804C000DF7047151A0008EFF30583CC
:101250002BB9EFF3108313B9EFF3118313B16FF0D0
:1012600005007047DFF804C000DF70477D1A0008F2
:10127000EFF305832BB9EFF3108313B9EFF3118369
:101280000BB100207047DFF808C000DF704700BFD7
:10129000C91A0008EFF3058129B9EFF3108111B9DC
:1012A000EFF3118111B16FF005007047DFF804C052
:1012B00000DF7047A51C0008EFF3058CBCF1000FA0
:1012C00009D1EFF3108CBCF1000F04D1EFF3118CB6
:1012D000BCF1000F01D000207047DFF808C000DF2C
:1012E000704700BF651D0008EFF305822AB9EFF3D0
:1012F000108212B9EFF3118212B16FF0050070473E
:10130000DFF804C000DF7047E11D0008EFF305813E
:1013100029B9EFF3108111B9EFF3118111B16FF019
:1013200005007047DFF804C000DF70472D1E00087D
:1013300030B180B501461320FFF71CFEBDE88040A8
:10134000002070470148007A704700BF64190020F0
:101350000148C068704700BF641900200148406818
:10136000704700BF688200082DE9F843504F387A73
:10137000012800F09580002840F0948007F10800D3
:101380009C21FFF709F8DFF82C81B8F81000A7F8C6
:101390005400D8E90202D8E90B41FA6538642046C6
:1013A000FFF7DBFA08B1C7F88040D8E90541DFF85C
:1013B0000891D8E907562046C847D7F8801000287A
:1013C000284618BF214679673146C847D7F88010AC
:1013D000002818BF2946B967D8E909412046C847FF
:1013E000D7F88010002818BF2146D8F83440F96794
:1013F0003CB12168D4E902232046FFF70BFBC7F874
:101400008440D8F838403CB12168D4E90223204612
:10141000FFF700FBC7F88840D8F83C403CB1216892
:10142000D4E902232046FFF7F5FAC7F88C40D8F834
:1014300040403CB12168D4E902232046FFF7EAFA94
:10144000C7F89040D8F844403CB12168D4E9022361
:101450002046FFF7DFFAC7F89440D8F848403CB17F
:101460002168D4E902232046FFF7D4FAC7F8984050
:10147000D8F84C403CB12168D4E902232046FFF75C
:10148000C9FAC7F89C40D8F850403CB12168D4E96B
:1014900002232046FFF7BEFAC7F8A04001203872A9
:1014A000002001E04FF0FF3001B0BDE8F08300BF45
:1014B00064190020688200085B090008B0B51D4C63
:1014C000207A01281CD1FFF72DFDC8B11A48FF2151
:1014D0001A4D8175817D026881F0FF01C2F30222FD
:1014E000B1FA81F1C1F120018A4228BF511CFE22CC
:1014F00002FA01F1C17468681149FFF735F810B1BB
:101500004FF0FF30B0BDFFF72BF82061FFF712F866
:1015100004F11C00FFF7B4FCFFF724FD2878C00796
:101520000CBF0320022080F31488022020720020C8
:10153000B0BD00BF641900200CED00E06882000817
:10154000E90200082DE9F84300284CD00F466FF05F
:101550000305002949D004460078FA2845D12046E1
:1015600099469046FEF77FFF002842D00646204667
:101570003146FEF7CBFF626A06F10C013846FEF7F2
:10158000F2FEB8F1000F1CBFF07888F8000004F1FB
:101590000C070025314638463570FFF716FAA0686B
:1015A00018B33846FFF7F4F90025F0B10646204697
:1015B000FFF766FC002101220746FFF7F9FC3846D9
:1015C000FFF7A6FC8168626A074606F10C00FEF789
:1015D000CAFEF920B57031463070F868F0702046C8
:1015E000FEF763FF01E06FF00305284601B0BDE898
:1015F000F083B9F1000F10D083204946FFF7BAFC01
:1016000040B1074841692046FFF744FCEFF30980E9
:10161000C0E902786FF00105E7E76FF00205E4E743
:10162000641900202DE9F84F002770B10D4661B113
:1016300005F10F010446B0FA80F021F00306B6FA76
:1016400086F10844202804D20027384601B0BDE8BE
:10165000F08F06FB04F872B1D2F808A01368D2E943
:101660000490BAF1000F11D05FEA8A71ECD1D16811
:101670003429E9D30DE000234FF0000934490093E9
:10168000D1F8A00078B1FFF783F912E0D168002902
:10169000DAD1B9F1000F2FD000274045D5D319F08A
:1016A00003002BD0D1E7D1F8800034210122FFF7CD
:1016B000EBF882464FF0010BB9F1000F10D1BAF1EF
:1016C000000F0DD0224F41460022F86FFFF7DCF8E3
:1016D000814638B148464146FEF75EFE57461AE05D
:1016E00057461AE0BBF1000F14D0D7F8A00060B144
:1016F0005146FFF76AF90DE00028A5D1BAF1000FB5
:10170000BCD000934FF0000BD6E7D7F880005146CD
:10171000FFF7FAF800270BF1020B002F3FF495AF0B
:10172000002032464B46C7E90950C7E90B00009933
:10173000C7E90110FA2087F802B02146387007F196
:101740000C00FFF767F90248024901677DE700BF17
:10175000641900205B0A00082DE9F84338B30E46EF
:101760006FF00307002951D005460078FA284DD1C3
:10177000A86899469046E8B1407883281AD128464F
:10178000FFF77EFB0021012204460027FFF710FC33
:101790002046FFF7BDFB044680686A6A3146FEF7C3
:1017A000E2FDE06890B380F8008000272EE06FF043
:1017B00003072BE005F10C00FFF7EAF880B16A6A35
:1017C00004460C303146FEF7CEFD0027F92084F8A0
:1017D00003802146A77020702846FEF766FE15E0BC
:1017E000B9F1000F10D093204946FFF7C3FB40B179
:1017F000084841692846FFF74DFBEFF30980C0E92F
:1018000002686FF0010701E06FF00207384601B08F
:10181000BDE8F08364190020B0B508B30446007831
:10182000F6281DD104F10C00D0E85F2F12B9BFF3E8
:101830002F8F04E0531EC0E8553F05B1F4E71004B4
:101840001CBF0020B0BD71B16320FFF793FB20B136
:10185000064841692046FFF71DFB6FF00100B0BD4F
:101860006FF00300B0BD6FF00200B0BD641900203E
:1018700010B508B304460078F6281DD1A06868B1F9
:101880002046FFF7FDFA6FF002010022FFF790FB00
:10189000A0680028F4D10020FFF798FA00202070FB
:1018A000A178C90708BF10BD0849D1F8980030B128
:1018B0002146FFF78AF807E06FF0030010BDD1F86A
:1018C00080002146FFF720F8002010BD6419002099
:1018D00070B5054601384FF6FE730C46002198425C
:1018E00098BFAC4201D9084670BD4AB190681668ED
:1018F00070B181070FD1D2680021102AF3D314E010
:1019000000261149D1F8980038B1FFF741F80AE0F4
:10191000D0680028F5D00021E5E7D1F8800010213B
:101920000122FEF7B1FF60B101210022C58184814F
:10193000C0E901628170F621044A017002498A6699
:1019400000E000200146CEE764190020650C000885
:10195000B0B560B10178F62909D1816859B1FFF7B6
:101960008FFA002101220024FFF722FB01E06FF033
:1019700003042046B0BDC18900F10C02D2E85F3FEC
:10198000994202D8BFF32F8F04E05C1CC2E8554F88
:1019900005B1F3E7C28999B26FF00200914238BFF6
:1019A0000020B0BD70B51A4D287A02282ED1686A81
:1019B000002808BF70BD6C69E06AFFF7ABF8A0694A
:1019C00018B100210022FFF7F3FAEFF30980A063BA
:1019D000686A81680029696202D005F11C02CA6048
:1019E0000026C660FFF7BEFA6E61E078C00704D13A
:1019F0002046BDE87040FFF717BA0420E66060702B
:101A0000686B0028A06000D0C4606C6370BD00BF2C
:101A100064190020B0B56FF0030460B300292ADB1D
:101A200005460078F12826D16878042802D16FF0A5
:101A3000020420E005F1280050E8002F42EA0104EA
:101A400040E8004303B1F7E76878332813D195F8ED
:101A50002320696A2846FEF7A7FD60B1014695F884
:101A6000230001220C4680075CBF686A21EA00045B
:101A70002846FFF79DFA2046B0BD0000F8B50546A0
:101A800010484769A7B1002D15DB0E4614463846AD
:101A900029463246FEF788FD90B97CB133202146B5
:101AA00087F823607D62FFF765FA6FF0010007E0B9
:101AB0004FF0FF3004E06FF0030001E06FF0020030
:101AC00001B0F0BD641900202DE9FE4F10B380462F
:101AD0006AB102F1100A9AE88006D2E900439668DA
:101AE000B6B1B00716D1D068442813D317E04FF031
:101AF000180A002300274FF000090024644A0293CB
:101B0000D2F88800CDE90014C8B1FEF741FF1CE00F
:101B1000D06820B10025284603B0BDE8F08F37B16A
:101B20000025B9F1000FF6D017F00700F3D1BAF194
:101B3000000F38D0AAF101003728EBD835E0D2F8F1
:101B4000800044210122FEF79FFE06464FF0010B64
:101B500067B95EB1B9F1000F0AD04D48494600227D
:101B6000406FFEF791FE98B107460FE035463EE024
:101B700047484849D0F88400D1F854900028ECD068
:101B8000FEF706FF20B107460BF1100B35462CE09F
:101B9000BBF1000F1CD03E49D1F88800E0B13146BE
:101BA000FEF713FF1DE04FF0180AB9F1000F06D041
:101BB0000025B9F1480FAED319F00700ABD1002EC4
:101BC0003FF49CAFCDE9001402934FF0000BBFE748
:101BD0004FF0000B002707E0D1F880003146FEF7F8
:101BE00093FE00274FF0010B00254BF0020B002D58
:101BF0003FF491AF0198182168600298E87040F2B4
:101C0000F11085F802B0288005F10800FEF7C4FB4A
:101C100007EB0900C5E90C79FD214038C5E90E083C
:101C2000002085F82F00C5F82B00C5F82700C5F85F
:101C3000230085F82210184985F821A085F820A0F6
:101C4000009E39601349097849070AD511213A1DC8
:101C50004FF0CC33A1EB990101E008C2013100291A
:101C6000FBD1A96B002202E041F8220001320D2ACB
:101C7000FAD10A4A4FF080700E62C1E90D28C8639C
:101C80000348074901662846FFF7A0F843E700BF6D
:101C90006419002068820008A52E5AE2E9110008A4
:101CA000D30E000870B5C8B104460078F12815D1EC
:101CB000607800F00F00012813D0032815D0022807
:101CC0001CBF6FF0020070BD25496FF002000A7A58
:101CD000022A18BF70BD496A69B970BD6FF0030070
:101CE00070BD2046FFF7EBF805E02046FFF7E7F868
:101CF0002046FFF733F8E06AFEF70CFFA06918B141
:101D000000210022FFF754F96078022811D1144D08
:101D1000EFF30980A063686A81680029696202D0D4
:101D200005F11C02CA600026C660FFF71BF96E6150
:101D300002E00020FFF74AF8E078C00703D1204610
:101D4000FFF772F80AE00020E060042060700448A9
:101D5000416B0029A16000D0CC604463002070BDBD
:101D600064190020F8B50E46002198B3012E31D831
:101D7000144605464BB198681F6870B181070FD1B2
:101D8000DA680021202A15D224E000271349D1F86F
:101D90008C0038B1FEF7FCFD0AE0D8680028F5D0C9
:101DA000002117E0D1F8800020210122FEF76CFD10
:101DB00070B10121C67081704FF4F971018000216A
:101DC000C0E90171C0E90311C0E90515C46100E073
:101DD00000200146084601B0F0BD00BF6419002094
:101DE000B0B578B105460C466FF00300C1B1297853
:101DF000F22918BFB0BD6878022806D12846FEF740
:101E000031FC08E06FF00300B0BD0748006D40B141
:101E100002206C61687028462146FEF7FBFB00201B
:101E2000B0BD6FF00200B0BD6419002078B1017838
:101E3000F2290CD1417802291CBF6FF002007047D3
:101E400080B501214170FEF70DFC002080BD6FF0D0
:101E5000030070472DE9F043047885B0894654B1FA
:101E6000012C09D05FF0000489F8004005B04FF064
:101E70000110BDE8F08301240F48012514210570ED
:101E80006846FEF789FA6803002603278DE8E1001B
:101E9000DFF828806946404601F058F8A8038DE82D
:101EA000E1006946404601F051F80548C0F8B852D3
:101EB000C0F8B452D8E70000083A00200000024001
:101EC000000040422DE9F04102787F2A03D0BDE8AE
:101ED000F04100F04FB801F8012B457801F8015BA3
:101EE000861C0C464FF0021708E02146304600F0F1
:101EF00041F8074406EB104614FA80F46D1EF4D244
:101F00003846BDE8F081000010B500240B4622469B
:101F1000062828D006DC052825D2DFE800F0242496
:101F200024240F00FD281ED002DCF0281BD10CE079
:101F30004021FE2815D0FF2815D10EE006242246A8
:101F40000A491846FEF70FFA0DE00948006800B18B
:101F5000202040F05100087004E019705A700224EB
:101F600001E019700124204610BD0000907E000899
:101F7000CC1800202DE9F047027886B0A2F180034A
:101F80001F2B04D800F01EF906B0BDE8F08701F859
:101F9000012B0C4610F801CB0126FF21824F834A0A
:101FA000DFF80CA200254FF003094FF00113BCF13C
:101FB0001E0F76D2DFE80CF00F17282CA0A9C4F46E
:101FC000E04B59F4F4F4F4F45D616576849A9DF481
:101FD000F4F4F4F4F4800078611CFFF795FF2070AE
:101FE00000F10210D0E70378724A23B1012B02D02E
:101FF00021703846C5E04078C00702D0C2F8B4521C
:1020000031E0C2F8B4622EE02146FFF723FFB8E0CA
:10201000157014216846FEF7BFF94FF40050CDE962
:102020000005DFF89481CDE902594F4669464046E4
:1020300000F08CFF4FF48040CDE90005CDE9025758
:102040006946404600F082FF2570304699E00188DD
:102050005A485B4A0068B0FBF2F0801CB0FBF9F014
:102060004843401EFDD12570C3E7657025700220EE
:1020700087E0214600F058FB83E0214600F02AFB70
:102080007FE010F8016B01460EB94FF480763046C0
:1020900002F08AF8F61D2570F008000400F1011026
:1020A0006FE07DE0007800F00301491C1176C0F379
:1020B0008000507625701DE0214600F089F860E030
:1020C000217001210C4610F8013B0AE010F8012BA9
:1020D00012F03F0200D14022D21DD2081144104418
:1020E000491C5B1EF2D244EA01404AE000782170AC
:1020F000D3E72170184644E001781173B0F801105D
:102100001182B0F80300508248E012782146012A7B
:1021100013D0421C12F8013B4BB100BF12F8014B27
:10212000A60701D5E40600D5121D5B1EF6D1101AD4
:102130000D7000044D70801C23E000F0A9F820E031
:10214000064610782146012809D00D704D70A57003
:102150000321F078800707D541F4802011E0304654
:1021600000F026FA0146F4E7B6F801004FF48022A9
:1021700002EB8040084304E01278012A04D0217069
:10218000504600F10110FFE60179D0F8010061F33B
:102190001F6000906946002001F0C8FC2570EFE741
:1021A00004F8011C1846EFE601000200083A00207E
:1021B000010005000000414200000240CC18002050
:1021C00040420F0000784FF001120870104670472F
:1021D0002DE9F04F85B04FF0000B01F801BB012550
:1021E00010F8016B8A46A946044646E014F8017BC4
:1021F00017F03F0000D14020C01D4FEAD00838063C
:1022000005D54FF40051204800F016FE13E01F4999
:102210000120C1F8B40214216846FEF7BDF84FF45E
:10222000005000900120CDE9010B03200390694686
:10223000154800F08BFE52462146384601F024FC3A
:102240009EB912490120C1F8B40214216846FEF774
:10225000A3F84FF4005000900120CDE9010B0320BA
:1022600003906946084800F071FE380602D5C24462
:10227000C14401E0444445446D1C761EB6D205B00D
:1022800049EA0540BDE8F08F0000024000004042EE
:102290002DE9F04F87B08B4601F102090446059005
:1022A000C14900200290087001906578A41C804606
:1022B000002D6FD0DFF8F4A214F8016BB1076AD5D6
:1022C000B8F1000F3BD0BAF8107006F011000128E9
:1022D0000AD0DFF8D48269460E2001F027FC0228DC
:1022E00012D04FF0000805E06946304601F01EFCB0
:1022F000022802D0012806D10FE07F1E03D3AA498D
:1023000009780029F0D0FCE07F1E03D398F8001074
:102310000029E0D04FF00008F3E0009989F80010A0
:10232000009A09F10101120A01F8012B009A120C1E
:1023300001F8012B009A120E01F8012B8946F106D3
:102340004DD5E17854F8040B61F31F600490BAF89E
:1023500012000390F00712D0BAF810700021304636
:1023600001F0E4FB022802D0012807D107E07F1E1C
:10237000791C03D08C4909780029EFD0C1E0BAF864
:1023800010706946304601F0D1FB022804D00128C4
:1023900019D108E0D5E060E07F1E14D382490978A6
:1023A0000029EED00FE0DAF8142000990A400499D1
:1023B0008A4208D00399491E0391491C03D07A49E7
:1023C00009780029DBD0DAF8142000990A40049932
:1023D0008A4201D040F01000012816D13BE0BAF843
:1023E0001070F10715D0B8F1000F34D1002130463C
:1023F00001F09CFB022802D0012806D106E07F1ED6
:102400007FD3694909780029F0D07AE04FF00108BC
:1024100021E06946304601F089FB022802D00128FC
:102420006FD106E07F1E6CD35F4909780029F0D098
:1024300067E0009989F80010009A09F10101120A79
:1024400001F8012B009A120C01F8012B009A120ED0
:1024500001F8012B8946002148E0B8F1000F25D092
:10246000BAF8107069460E2001F060FB022802D015
:10247000012846D106E07F1E43D34B490978002945
:10248000F0D03EE0009889F80000009909F10100C1
:10249000090A00F8011B00994FF00008090C00F828
:1024A000011B0099090E00F8011B8146E17854F8E0
:1024B000040B61F31F600090B10603D5CAF8140045
:1024C000012014E0BAF810706946304601F02EFB86
:1024D000022802D0012814D107E07F1E791C10D0F9
:1024E000314909780029EFD00BE0012101910299CF
:1024F000491C02912C49097819B96D1E7FF4DCAE94
:1025000009E045B114F8011B8A0701D5C90600D5B9
:10251000241D6D1EF5E7012837D1B8F1000F24D036
:10252000BAF81050204E69460E2001F0FFFA02283A
:1025300002D0012829D105E06D1E26D3317800296B
:10254000F1D022E0009989F80010009A09F1010108
:10255000120A01F8012B009A120C01F8012B009AC3
:10256000120E01F8012B89460FE0019969B1BAF802
:1025700010500D4E00210E2001F0D8FA022804D18F
:102580006D1E02D331780029F4D002998BF8001027
:102590008BF801000598A9EB0B01201A07B041EA5E
:1025A0000040BDE8F08F000072180020083A0020BB
:1025B0002DE9F84FDFF814810027044638460D4610
:1025C00001F1030A88F80070B4F80160E41C002EE1
:1025D00073D014F8019BDFF8F8B05FEA89715CD51D
:1025E0005FEAC9713CD0BBF810400021484601F0B9
:1025F0009DFA022802D001285FD131E0641E5CD32D
:1026000098F800100029F0D057E026B95FEAC970A9
:1026100001D04FF00E09BBF810406946484601F062
:1026200085FA022802D0012847D106E0641E44D36F
:1026300098F800100029F0D03FE000998AF80010C7
:10264000009A0AF10101120A01F8012B009A120CFA
:1026500001F8012B009A120E01F8012B8A467F1C0B
:10266000761ED2D229E0E17854F8040B61F31F60A2
:102670000090BBF810806946484601F057FA0228DE
:1026800002D0012819D107E0B8F1010815D30F498C
:1026900009780029EFD010E07F1C761EE3D2BBF84A
:1026A00010400A4E00210E2001F040FA022804D109
:1026B000641E02D331780029F4D02F70390A697072
:1026C000A870AAEB0500BDE8F88F00007218002082
:1026D000083A002030B5C2780368104862F31F63DF
:1026E0004BB10F4A002415680E4AB3EB950F05D382
:1026F000012353700FE0FF220A7030BD03EB550534
:102700006D1EB5FBF3F35470022B03D90325B3FB05
:10271000F5F300E0012353600C7030BD01000400AC
:10272000CC180020083A0020F0B54479D0F80250C7
:102730000378427864F31F652648D7074FF00006F8
:102740004FF0010406D0DF0702D0C0F8B84201E024
:10275000C0F8B862970706D59F0702D5C0F8B44203
:1027600001E0C0F8B46255B31B4E0127D6F80450FF
:102770005FEAC27C03D0D0F838C29C4519D15FEA29
:10278000827C04D5D0F834C2BCEB530F11D15FEA80
:10279000427C02D55FEA930C0BD15FEA826C02D5D2
:1027A0005FEA531C05D15FEA026C08D5B4EBD31F76
:1027B00005D0D6F804C0ACEB050CBC45D8D3D0F896
:1027C0003822D0F8340242EA400040F0800008701D
:1027D0000248F0BD00004042001000E00100060089
:1027E0000C4800210C4A0170417012680B4BB2FB7F
:1027F000F3F2921E4260017364220282418201223E
:102800004161027641760648C0F8B822C0F8B42289
:1028100070470000083A0020CC180020002D31013C
:1028200000004042304E314C4FF0FF39002706F592
:10283000805A4A4600218120FEF708FD4FE0A58816
:102840004FF07F0810E000BF6D1C80F80080402D25
:1028500000D100256088854206D14A4600218120AA
:10286000FEF7F4FC000604D406EB851001787E29FF
:10287000EAD0207838B16189A0880AEB811106EB93
:102880008010FFF71FFBA088401CA080A088402874
:1028900000D1A7802089401C20816089401C608174
:1028A0006089402800D16781E089401CE081607820
:1028B000A8B1E089218A884211D0A089411CA18158
:1028C000A189402900D1A781218A491C21826770F2
:1028D0000AEB801200214023084603F0BBFFE0888A
:1028E00021898842A5D0AAE7081A00206018002094
:1028F00010B5382000F05BFCBDE81040014800F046
:10290000B9B90000503A002010B5442000F04FFC47
:10291000BDE81040014800F0ADB90000B03A002019
:10292000224A08B52249904207D1086840F00100C8
:102930000860086800F0010009E01E4A904208D1D2
:10294000086840F002000860086800F0020000908B
:1029500008BD194A904207D1086840F00400086099
:10296000086800F00400F2E7144A904207D10868B2
:1029700040F008000860086800F00800E7E7104A27
:10298000904207D1086840F010000860086800F025
:102990001000DCE70B4A9042DAD1086840F0800072
:1029A0000860086800F08000D1E7000000000240E5
:1029B000303802400004024000080240000C02408F
:1029C00000100240001C02402DE9F0410A4D05F1C3
:1029D0001806AF6900F032F9044601463046FDF7AB
:1029E000F5FBB842F5D1844203D203481030FDF71D
:1029F000E4FB2046BDE8F081004300202DE9FF5FA5
:102A00008B464FF0805000EADB08400007259A46CD
:102A10009146410000EA990701EA5A062048FDF76D
:102A2000CCFB014600F03F021E48890900EB02146E
:102A30004FF4700000EA01510098084340EA080092
:102A40003843304340F0406104F10C00FDF7C6FB11
:102A500041011CD580F0044101F000402BF0004200
:102A60000243226029F00042024362602AF00042E1
:102A7000024304F10C00A260FDF7C1FB48B1084815
:102A8000001DFDF79AFB012004B0BDE8F09F6D1E0C
:102A9000C4D103480830FDF790FB0020F4E70000A4
:102AA00004430020803E00202DE9F0478146FF29A5
:102AB00001D2FF2A02D30020BDE8F0870024104D88
:102AC00020464FF0010A0AFA00F3564613EA090FAE
:102AD0000FD00B46B2460AE004EBD30603F007081A
:102AE000AF5D0AFA08FC47EA0C07AF555B1C93423E
:102AF000F2D9401C20340428E5D30120DCE7000093
:102B0000804200202DE9F0473C4C88468146002554
:102B100025708021A4F18000FDF73EFC384B4FF674
:102B2000FF761822304641F2210700BF13F8011B3F
:102B300080EA01205FF008015FEA004C06EA4000ED
:102B400000D57840491EF7D1521EEFD12D4A236A95
:102B50000121934201D0226202E06288824202D0C7
:102B60006080E16137E0E069401CE061012832D01B
:102B7000254B002003EB0011CA68560102D522F054
:102B80004062CA60401C4028F4D3E06901282BD081
:102B900000F060F80646DEB1FE2200214846FFF74D
:102BA00083FFEF2211460F20FFF77EFFFE22114622
:102BB0000420FFF779FFFFF707FF014600231348C2
:102BC000E269FFF71BFFB8F1000F01D000F020F819
:102BD0003046BDE8F08765706560A5604FF48061A0
:102BE0000948E560FDF7D8FB00F034F8061E01D077
:102BF00000F02AF8C4E905052561CCE70043002070
:102C00000C8000086B27A5E1803E002000FF000338
:102C1000084810B5017809B1012010BD01210170EB
:102C2000FFF7D2FE014600231A460348FFF7E6FEEF
:102C3000F2E700000043002001FF00030148406864
:102C400070470000001000E0014800687047000075
:102C5000CC1800200548016841F0807101600448EB
:102C6000016841F00101016001207047FCED00E0C6
:102C7000001000E02DE9F84304464FF00009CDF8BC
:102C8000009063484FF41651A56D0068B0FBF1F752
:102C90002E6894F85C10082000FA01F131420FD040
:102CA00021680A6852070BD50A6822F004020A60FC
:102CB00094F85C108840A860606D40F00100606589
:102CC00094F85C104FF0010808FA01F0304208D087
:102CD00021684969090604D5A860606D40F00200CA
:102CE000606594F85C1004208840304208D0216868
:102CF0000968890704D5A860606D40F0040060652C
:102D000094F85C1010208840304218D0216809687F
:102D1000090714D5A86020680168490304D5006834
:102D2000000308D5A16C07E00168C90503D4016858
:102D300021F008010160216C09B12046884794F810
:102D40005C1020208840304231D021680968C906D3
:102D50002DD5A86094F8350005282068016806D0B4
:102D6000490347D5006800031DD4616C1CE021F0C5
:102D7000160101602068416921F080014161206CE9
:102D800008B9A06C20B12068016821F00801016039
:102D900094F85C103F208840A86084F8349084F850
:102DA0003580216D1FE0E16B09B120468847606DD9
:102DB00000282BD0606DC00714D0052084F83500A2
:102DC0002068016821F0010101600098401C00901A
:102DD000B84203D820680068C007F6D184F8349060
:102DE00084F83580E16C002910D001B02046BDE8A0
:102DF000F04308470168C905D5D4016821F01001E6
:102E0000016084F8349084F83580CCE7BDE8F8831D
:102E1000CC18002070B5044600F06EF90546601C21
:102E200002D004480078044400F066F9401BA04238
:102E3000FAD370BDC01800202DE9F04F0022DFF852
:102E4000F0B001264FF00F0906FA02F401EA04037C
:102E5000A34267D122F003075F44D7F8088895079B
:102E60004FEA157C09FA0CFA0AEA0805DFF8C48073
:102E7000404502D14FF000081DE0DFF8BC8040451E
:102E800002D14FF0010816E0DFF8B080404502D1D2
:102E90004FF002080FE0DFF8A880404502D14FF064
:102EA000030808E0DFF89C80404502D14FF0040899
:102EB00001E04FF0070808FA0CF8A84515D1D7F83B
:102EC00008C82CEA0A0CC7F808C81F4D2F689F4392
:102ED0002F602D1D2F689F432F602D1D2F689F434E
:102EE0002F602D1D2F689F432F6005685700032317
:102EF000BB409D430560D50800EB8505D5F820C093
:102F000057074FEAD76809FA08F72CEA070CC5F803
:102F100020C085689D4385604568A5434560C468B9
:102F20009C43C460521C102A8ED3BDE8F08F000071
:102F3000003001400000024000040240000802404E
:102F4000000C024000100240003C01402DE9F84F07
:102F5000DFF860B100224FF001084FF0030A4FF094
:102F60000F090BF1040E00BF0B6808FA02F42340AE
:102F7000A3426ED14D68022D01D0122D0ED1D5087D
:102F800000EB850CDCF820505607F70E09FA07F61F
:102F9000B5430E69BE402E43CCF82060066855004C
:102FA0000F790AFA05FC07F0030726EA0C06AF4082
:102FB000374307604E68012E05D0022E03D0112E34
:102FC00001D0122E0ED18668CF6826EA0C06AF40DB
:102FD000374387604668A6430C79C4F300149440D5
:102FE00034434460C6688C6826EA0C06AC4034431F
:102FF000C4604C68E40056D52F4C256845F48045E4
:103000002560246822F0030504F4804400942B4CCE
:103010002E19D6F8084895072F0F09FA07F5AC4383
:10302000274DA84201D1002515E0264DA84201D127
:10303000012510E0244DA84201D102250BE0234DCB
:10304000A84201D1032506E0214DA84202D1042562
:1030500001E028E00725BD402543C6F80858DBF805
:1030600000405D464E689C43F60300D51C432C602F
:10307000DEF8004075464E689C43B60300D51C43FD
:103080002C600C4D08352C684E689C43F60200D528
:103090001C432C60074D0C352C684E689C43B602CF
:1030A00000D51C432C60521C102AFFF45DAFBDE814
:1030B000F88F0000003C01404438024000300140DD
:1030C000000002400004024000080240000C0240E0
:1030D00000100240426931EA020200D10904816114
:1030E00070470AB1816170470904FBE70148006835
:1030F000000C7047002004E010B5FDF7D9FA022853
:1031000016D00D480068800B0DD000BF00BF00BF77
:1031100000BF00BF00BF00BF00BF00BF00BF00BFB7
:1031200000BF401EF1D105490868401C086010BD71
:10313000BDE81040FDF7D4BACC1800205818002084
:10314000094810B5016841F400710160016841F45B
:1031500080610160032000F057F80F2000F006F8AE
:1031600000F024F8002010BD003C024070B50D4D69
:1031700004464FF47A712878B1FBF0F00A490968E7
:10318000B1FBF0F000F0BAFA48B9102C07D20022D7
:103190002146501E00F018F800206C6070BD012020
:1031A00070BD0000C0180020CC1800207047002817
:1031B00009DB00F01F02012191404009800000F16D
:1031C000E020C0F880127047F0B40E4B1B680C462C
:1031D000C3F30223C3F10705042D00D90425191DEB
:1031E000072901D2002300E0DB1E012606FA05F1C3
:1031F000491E214099409E40761E16403143F0BC46
:1032000004F086BD0CED00E0064900F007020868F6
:103210004FF6FF03184040EA0220034A10430860BB
:10322000704700000CED00E00000FA052DE9F047C2
:103230000E46050065D0DFF81481D8F80000F7B21B
:1032400000F00F00B04207D288F80070D8F80000F4
:1032500000F00F00B04254D128683D4C810712D5D0
:10326000400703D5206840F4E0502060287800072C
:1032700003D5206840F4604020602068A96820F0F1
:10328000F000084320602878C0072DD030496868D6
:103290000839012812D0022813D0032811D0096858
:1032A000890700292DDA216821F0030101432160FB
:1032B000FFF722FF814641F2883A0EE00968890350
:1032C000EFE709688901ECE7FFF716FFA0EB0901BA
:1032D000514502D90320BDE8F0872068696800F0F5
:1032E0000C00B0EB810FEFD1D8F80010404601F090
:1032F0000F01B14207D90770006800F00F00B0421B
:1033000001D00120E7E72878400705D52068E96863
:1033100020F4E050084320602878000706D5206894
:10332000296920F4604040EAC100206000F026F8DE
:103330002168084AC1F30311515CC840064908607E
:103340000F20FFF713FF0020C5E70000003C0240FC
:103350000838024024800008CC18002004480549A1
:1033600000680968044AC1F34231515CC8407047A3
:10337000CC1800200838024034800008154810B5E9
:10338000006810F00C02144813D01449042A0FD01E
:10339000082A0ED10F4C241F2268236802F03F0236
:1033A0005B0207D52068C0F38810A0FB010106E08E
:1033B000084610BD2168C1F38811A1FB000100235C
:1033C000FCF7A0FF2168C1F30141491C4900B0FB93
:1033D000F1F010BD083802400024F40040787D016F
:1033E0002DE9F84F050076D02878DFF8F8B2BE4C0A
:1033F000C00749D0DBF800105846C1F3810101290C
:1034000008D00068C0F3810002280AD1201D00689E
:10341000400206D52068800336D568680028E2D0CF
:1034200032E06868B0F5803F10D0B0F5A02F20687A
:1034300010D020F480302060206820F480202060AC
:103440006868A0B1FFF758FE06460CE0206840F41B
:103450008030F4E740F480202060F7E7FFF74CFE6F
:10346000801B642873D820688003F7D50CE0FFF731
:1034700043FE064605E000BFFFF73EFE801B6428C2
:10348000F0D820688003F7D42878DFF860828007BE
:103490004FF000093ED5DBF80010584611F00C0F34
:1034A00009D00068C0F3810002280BD18D48001FAD
:1034B0000068400206D42068800715D5E868012816
:1034C00009D111E0E868B8B10120C8F80000FFF7A1
:1034D00013FE064605E002E1FFF70EFE801B022800
:1034E000C0D820688007F7D52068296920F0F80047
:1034F00040EAC10020600DE0C8F80090FFF7FCFD35
:10350000064604E0FFF7F8FD801B02281FD820685C
:103510008007F7D42878000722D5724E744869696D
:103520006C3671B101210160FFF7E6FD074604E04A
:10353000FFF7E2FDC01B022809D830688007F7D5E5
:103540000EE0C0F80090FFF7D7FD074605E083E0E6
:10355000FFF7D2FDC01B02287ED830688007F7D461
:103560002878400768D5DFF87CA100270AF1380ADF
:10357000DAF80000C0000BD4DAF8001041F08051F6
:10358000CAF80010DAF80000012700F0805000901F
:10359000584E3068C00510D4306840F480703060F8
:1035A000FFF7AAFD009005E0FFF7A6FD0099401A7D
:1035B000022851D83068C005F6D54A4EA86868364A
:1035C00001280FD00528306810D020F001003060AD
:1035D000306820F004003060A868B8B1FFF78CFDB7
:1035E00000900FE0306840F00100F4E740F0040084
:1035F0003060F7E7FFF780FD0099411A41F288300B
:10360000814264D830688007F4D50EE0FFF774FD7E
:10361000009007E0FFF770FD0099411A41F28830F1
:10362000814254D830688007F4D42FB1DAF8001002
:1036300021F08051CAF80010A869C0B3DBF800106F
:10364000C1F3810102294AD00228484607D0C8F8B0
:103650006000FFF751FD00E039E005463AE04746DB
:10366000C8F86000FFF748FD064604E0FFF744FD98
:10367000801B02282BD820688001F7D4D5E90701E8
:103680000843A96A1C4A490802EB01416A6A41EAF7
:103690008211084395F82C1040EA01611148001F7F
:1036A000016001203866FFF727FD054605E014E0BC
:1036B000FFF722FD401B022809D820688001F7D5BA
:1036C0000BE000BFFFF718FD401B022802D90320C2
:1036D000BDE8F88F20688001F4D40020F8E70120CD
:1036E000F6E7000008380240003802400000474278
:1036F000800E4742007000400000FFFF10B5401EE2
:10370000B0F1807F01D3012010BD4FF0E024606153
:103710000F21601704F0FCFA0020A061072020614F
:10372000002010BD2DE9F04387B014216846FCF756
:1037300033FE31480024016841F0800101600168D6
:1037400001F080010591016841F00101016001680B
:1037500001F001010591016841F002010160016879
:1037600001F002010591016841F004010160006867
:10377000224F00F004000590012272213846FFF725
:10378000B0FC0122DFF87890560331464846FFF737
:10379000A8FC722000900125CDE901546946384605
:1037A0000394FFF7D3FB042000901648CDE90104F1
:1037B00069463846FFF7CAFB032703970096DFF8F0
:1037C0004880CDE9015469464046FFF7BFFBA80396
:1037D000CDE90005CDE9024769464046FFF7B6FB53
:1037E0000096CDE90154694648460394FFF7AEFBC5
:1037F00007B0BDE8F083000030380240000402400A
:103800000008024000001110000002404FF0A041EB
:1038100048698969084002F0DFBA00002DE9F041EB
:1038200005461D4E86B0C0074FF000044FF002075A
:103830004FF00A080CD03046FFF772F8B014009031
:10384000CDE90174CDE9034869463046FFF77EFBB8
:10385000A8070DD53046FFF763F84FF400600090DD
:10386000CDE90174CDE9034869463046FFF76EFBA8
:10387000E8060DD53046FFF753F84FF4806000900E
:10388000CDE90174CDE9034869463046FFF75EFB98
:1038900006B0BDE8F08100000000024070B50446AB
:1038A0000B4DC00703D0A9142846FFF7C5FAA0079F
:1038B00004D54FF400612846FFF7BEFAE00606D5AE
:1038C0002846BDE870404FF48061FFF7B5BA70BD7F
:1038D00000000240014800F02DB80000047F0008FD
:1038E0000B48C169096809684A680146896A09681C
:1038F0000AB100290AD1826AD160426A002111719D
:10390000406A0168002901D0012008477047000083
:10391000047F00080649086A006800684268084693
:10392000806A00680AB1002801D1896A086170477D
:10393000047F000870B5044600202268916811F0E9
:10394000680F3BD04D064FF0010327D510680005E6
:103950000BD4127BA06A0568C168A94215D24168E0
:1039600099B14D1C45600A700FE09289A16A0D68FB
:10397000C868A84209D24D683DB1681C48602A70E9
:10398000A16A150A421C4A600570A06AC168491CF8
:10399000C16020688168606A437102200A0703D50C
:1039A000626A40F002005371890618D5616A8B7112
:1039B00021680A680A6040F0040010E0C8071BD0C4
:1039C0005068400618D51046A16A00F016F810B1EC
:1039D00001280DD005E0A16A206800F030F8002829
:1039E0000AD0616A0968002906D0BDE8704008471E
:1039F000626A00211171F4E770BD30B50D68CA68C4
:103A0000AA421AD203681B0506D4037B486860B13A
:103A1000441C4C60037008E083894C682CB120463C
:103A200023701C0A831C4B604470521CCA60AA425B
:103A300001D1012030BD002030BD022030BD10B5C5
:103A40000B680A699A421CD20268120508D48A6877
:103A50001AB1531C8B60127800E00A7E02730BE0EF
:103A60008B683BB11A461B78941C8C60527843EAF1
:103A7000022200E00A8B82810869401C0861002054
:103A800010BD022010BD00002DE9F04310F03F03EF
:103A900000D14023DFF8909005062248D9F8044071
:103AA0004FF000074FF0010C1DD438E0002408252A
:103AB000D9F8041012E000BFC0F8B8720E46761EA6
:103AC000FDD1D0F83482C0F8B8C20E46761EFDD1C2
:103AD00064085B1E44EAC8146D1E01D0002BEBD1B4
:103AE000EC4002F8014B002BE0D1BDE8F08300BFB1
:103AF00011F8012B08250FE0C0F8B422C0F8B87205
:103B00002646761EFDD1C0F8B8C22646761EFDD1E7
:103B100052085B1E6D1E02D0002BEDD1E5E7002B95
:103B2000E6D1E2E700004042083A0020034A52781A
:103B30000AB100F005B800F047B90000083A0020CB
:103B40002DE9F04F9C4C85B001258A460646C4F805
:103B5000B4520027C4F8B872C4F8B852C4F8B4021A
:103B6000C4F8B872C4F8B8524008C4F8B402C4F833
:103B7000B872C4F8B8523118B008C4F8B402C4F826
:103B8000B872C4F8B8520144F008C4F8B402C4F8DA
:103B9000B872C4F8B8520844C4F8B402C4F8B87291
:103BA000C4F8B852C4F8B472C4F8B872C4F8B852C1
:103BB000C4F8B452C4F8B872C4F8B8524FF4005BF9
:103BC00059467E48FFF738F9DFF8F49199F8180064
:103BD000010005D0C4F8B872C4F8B852491EF9D132
:103BE000B846C4F8B872D4F83422C4F8B852C4F84D
:103BF000B872D4F83432C4F8B85242EA4302C4F876
:103C0000B872D4F83412C4F8B85242EA8107012FCE
:103C10001CD0022F7DD0042F7BD0213006D041460E
:103C2000C4F8B812C4F8B852401EF9D1C4F8B4525E
:103C300014216846FCF7B0FB0320CDE90280CDE9F2
:103C400000B569465D48FFF781F9AFE0B10739D5A6
:103C5000002210462021C446C4F8B8C2D4F8343239
:103C6000C4F8B8525208184442EAC372491EF3D14C
:103C7000E046C4F8B8C2D4F83412C4F8B852484088
:103C8000C00700D00827BAF1000F01D0CAF8002001
:103C900099F8180030B14146C4F8B812C4F8B852C7
:103CA000401EF9D1C4F8B45214216846FCF774FBE5
:103CB0000320CDE90280CDE900B569463F48FFF712
:103CC00045F92DE030B14146C4F8B812C4F8B852F5
:103CD000401EF9D1C4F8B45214216846FCF75CFBCD
:103CE0000320CDE90280CDE900B569463348FFF7EE
:103CF0002DF90022DAF8000020214346C4F8B4026E
:103D0000C4F8B832C4F8B85202444008491EF5D18C
:103D100000E018E0C4F8B422C4F8B832C4F8B852CD
:103D2000300603D527484168C9F8081099F80C00F7
:103D3000E0B34146C4F8B482C4F8B812C4F8B8522B
:103D4000401EF9D132E099F8191049B1B10707D5F1
:103D500021214346C4F8B832C4F8B852491EF9D1FB
:103D600030B14146C4F8B812C4F8B852401EF9D177
:103D7000C4F8B45214216846FCF70EFB0320CDE9C9
:103D80000280CDE900B569460C48FFF7DFF899F8E5
:103D9000190058B1B00709D44146C4F8B4822120B3
:103DA000C4F8B812C4F8B852401EF9D1C4F8B452DD
:103DB00005B0F8B2BDE8F08F0000404200000240BC
:103DC000083A0020001000E02DE9F04FF24C0023EB
:103DD00085B001258B460646C4F8B4521946C4F88E
:103DE000B832EE4F78680246521EFDD1C4F8B85280
:103DF0000246521EFDD1C4F8B462C4F8B81202469D
:103E0000521EFDD1C4F8B8520246521EFDD103EB3A
:103E1000060C7308C4F8B432C4F8B8120246521E35
:103E2000FDD1C4F8B8520246521EFDD19C44B308DD
:103E3000C4F8B432C4F8B8120246521EFDD1C4F818
:103E4000B8520246521EFDD1F2086344C4F8B422AF
:103E5000C4F8B8124FEA000CBCF1010CFCD1C4F854
:103E6000B8528446BCF1010CFCD11A44C4F8B42207
:103E7000C4F8B8120246521EFDD1C4F8B852024628
:103E8000521EFDD1C4F8B412C4F8B8120246521E34
:103E9000FDD1C4F8B8520246521EFDD1C4F8B45246
:103EA0008846C4F8B8120146491EFDD1C4F8B8527C
:103EB000401EFDD14FF40051B948FEF7BDFF3A7ED8
:103EC00011000DD07868C446C4F8B8C203465B1E22
:103ED000FDD1C4F8B85203465B1EFDD1521EF3D18A
:103EE0004246C4F8B882786803465B1EFDD1D4F818
:103EF0003432C4F8B8528446BCF1010CFCD1C4F889
:103F0000B8228446BCF1010CFCD1D4F834C2C4F808
:103F1000B8528046B8F10108FCD143EA4C039146FF
:103F2000C4F8B8220246521EFDD1D4F834C2C4F8F7
:103F3000B852BA460246521EFDD143EA8C07012F01
:103F400023D0022F77D0042F75D021310CD04B46CF
:103F5000C4F8B8320246521EFDD1C4F8B852024627
:103F6000521EFDD1491EF3D1C4F8B4521421684643
:103F7000FCF712FA4FF400508DE821020320039061
:103F800069468748FEF7E2FF00E1B20754D50023F7
:103F900019462022C4F8B8924FEA000CBCF1010C7B
:103FA000FCD1D4F834C2C4F8B8528046B8F1010844
:103FB000FCD15B08614443EACC73521EEAD122462D
:103FC000C4F8B892D0468446BCF1010CFCD1D2F8BA
:103FD00034C2C2F8B852401EFDD181EA0C01C807B4
:103FE00000D00827BBF1000F01D0CBF8003098F8C3
:103FF000181079B1DAF80400CC4600BFC2F8B8C294
:1040000003465B1EFDD1C2F8B85203465B1EFDD1CC
:10401000491EF3D1C2F8B45214216846FCF7BCF92A
:104020004FF400508DE821020320039069465C485C
:10403000FEF78CFF41E05CE061B14B46C4F8B8325A
:104040000246521EFDD1C4F8B8520246521EFDD19E
:10405000491EF3D1C4F8B45214216846FCF79CF908
:104060004FF400508DE821020320039069464C482C
:10407000FEF76CFFDBF80010DAF804004FF0000CDC
:104080002023A046C8F8B412C8F8B8920246521EBF
:10409000FDD1C8F8B8520246521EFDD18C444908E1
:1040A0005B1EEFD1C8F8B4C2C8F8B8920146491EE9
:1040B000FDD1C8F8B852401EFDD1300603D53948AD
:1040C0004068CAF808009AF80C00E0B34A46C4F801
:1040D000B492DAF8041000BFC4F8B8220B465B1E95
:1040E000FDD1C4F8B8520B465B1EFDD1401EF3D182
:1040F0004CE09AF819207AB1B2070DD52123C846B1
:10410000C4F8B8820246521EFDD1C4F8B852024625
:10411000521EFDD15B1EF3D1D04669B14FEA0903AF
:10412000C4F8B8320246521EFDD1C4F8B852024655
:10413000521EFDD1491EF3D1C4F8B4521421684671
:10414000FCF72AF900E021E04FF400508DE821024D
:104150000320039069461248FEF7F8FE98F81910FC
:10416000A1B1B10712D44B46C4F8B492D8F80410E8
:10417000212200BFC4F8B8320846401EFDD1C4F861
:10418000B8520846401EFDD1521EF3D1C4F8B452B5
:1041900005B0F8B2BDE8F08F00004042083A0020B8
:1041A00000000240001000E0F0B5124A002423464F
:1041B00027464FF0010C0E4D526816E013B911F866
:1041C000014B0823E60702D0C5F8B4C201E0C5F8E8
:1041D000B472C5F8B8721646761EFDD1C5F8B8C2DD
:1041E0001646761EFDD164085B1E401EE6D2F0BD69
:1041F00000004042083A002030B5234893B0002424
:10420000016841F080510160006800F08050119019
:104210001E48016821F4404141F4004101600068FA
:10422000022500F44040119001200090000401900C
:104230008001CDE90650192008904FF4A87009902C
:1042400004200A9007200B906846FFF7C9F800B1D8
:10425000FEE70F20CDE90C054FF48050CDE90E406C
:1042600002210CA81094FEF7E1FF00B1FEE7FEF773
:104270003DFF41F20101884204D10548016841F443
:104280008071016013B030BD4038024000700040C2
:10429000003C024070B5194C2068194A10F00C011E
:1042A000184804D0184D042903D0082903D002600F
:1042B0001BE0056019E01149091F0B68C3F3805624
:1042C0000B6803F03F0316B1B5FBF3F201E0B2FB5C
:1042D000F3F20B680968C3F388135A43C1F3014131
:1042E000491C4900B2FBF1F101602168074AC1F3A2
:1042F0000311515C0268CA40026070BD0838024078
:104300000024F400CC18002040787D0124800008AF
:104310001048016841F4700101600F48016841F0E4
:10432000010101600C4A00210832116002680B4B48
:104330001A400260031D0A4A1A60026822F48022B1
:10434000026005480C300160024958068039086057
:104350007047000088ED00E000380240FFFFF6FEE5
:1043600010300024014800F003B80000747F0008FA
:104370002DE9F041446822680021E5680B461540AC
:10438000AD060F464FF001064FD5C56A95F805C03A
:10439000BCF1000F03D0ED68022D04D007E0616886
:1043A000EE71202141E0056BED69012D2CD0636891
:1043B0009BB2056BAC6804F1010CC5F808C0237012
:1043C0004468E46865050BD4E40409D5056B4FEA3D
:1043D000132CAC6804F1010EC5F808E084F800C0A5
:1043E000056B2C69641C2C61056B2D68AC421CD1DB
:1043F0004468E56825F01005E560C46A6771C46A21
:10440000E468022C02D00FE06468D2E7046BE5692F
:10441000E761012D04D0022D06D0032D05D101E066
:10442000012102E0042100E002214568EC6814400B
:10443000E40602D56C6841F04001EC6814402406A3
:1044400051D5046B94F820C0BCF1000F04D0EB6888
:1044500043F00103EB6046E0D4F814C0656865459D
:1044600019D0C36ADB68022B02D1E369022B2FD07B
:10447000E3685D1CE56044681B78E4685FEA445CBF
:1044800009D4E40407D5046B05F1010CC4F80CC091
:104490002C7843EA0423046B65696D1C65614468EC
:1044A0006360036B5C685B699C421CD14368DC6899
:1044B00024F08004DC604368DC6844F04004DC6085
:1044C000036B83F82170C36ADC68022C02D008E019
:1044D000638BE0E7046BE469012C04D1DB7ADB0633
:1044E00001D441F001014368DC681440640605D53D
:1044F000DC6824F04004DC6041F00801130705D5B6
:1045000043685B68C36A41F02001DE71930705D5FB
:1045100043685B68C36A41F480715E72D30705D05B
:1045200043685B68C36A41F400719E72D30508D585
:1045300043681C6824F480741C60C36A41F08001E5
:104540001E72920506D54268136823F40073136047
:1045500041F48061002907D0C06A0268002A03D0B4
:10456000BDE8F04108461047BDE8F0810146002053
:1045700003F072BA0A460146002003F075BA000043
:1045800007490978884209D2064951F8200028B124
:10459000C16819B1006808B1002070472120704738
:1045A0007C800008808000082DE9F04100250B4E3A
:1045B00007462C4656F82400816939B1007FB8427D
:1045C00004D1204602F094F900B10546641C14F0B1
:1045D000FF04EFD02846BDE8F0810000D01800208D
:1045E0002DE9F04100250B4E07462C4656F82400D5
:1045F000816939B1007FB84204D1204602F0C2FA85
:1046000000B10546641C14F0FF04EFD02846BDE855
:10461000F0810000D0180020002070470020704773
:10462000704700207047000070B505460024FFF772
:10463000A7FF30B9044850F82500C068007900B1E0
:104640000124204670BD00008080000810B504469B
:10465000FFF796FF002804D12046BDE8104000F087
:1046600027BA10BD70B504462D4E0D46C80704D0BC
:1046700056F8241009B101208847A80707D556F835
:10468000241009B100208847204603F065F9680727
:1046900021D5204603F060F9224850F8240006682E
:1046A000F078B38800F00302B178204600F06AFA8F
:1046B00048B9F078B38800F00302B07840F0800188
:1046C000204600F05FFA204603F030F9164850F813
:1046D000240000B1804728070BD51449012051F868
:1046E0002410C96881F89500114850F8240000B1E1
:1046F0008047E80604D50F4850F8240000B18047F1
:10470000A80604D50C4850F8240000B18047290AB7
:10471000480704D02046BDE8704000F00BBD70BDD6
:10472000F880000824190020FC8000088080000820
:1047300000810008048100080881000810B50446C3
:104740000C480078844201D3002010BD0A4850F87C
:104750002400C0680028F8D00849D0F8AC0051F80F
:10476000241088470028F0D12046BDE81040FFF70C
:1047700053BF00007C80000880800008248100086E
:1047800010B504460C480078844201D3002010BDC7
:104790000A4850F82400C0680028F8D00849D0F82A
:1047A000AC0051F8241088470028F0D12046BDE81D
:1047B0001040FFF733BF00007C80000880800008B5
:1047C0002081000810B504460A48007884420FD2C0
:1047D000094850F82400C068002809D00749A030D3
:1047E00051F8241088472046BDE81040FFF718BF55
:1047F00010BD00007C800008808000081C8100083B
:1048000010B504460F480078844201D3002010BD43
:104810000D4850F82400C0680028F8D00021C0F8E6
:10482000A810C0F8AC10094900F1AC0251F82430CE
:10483000111FA03098470028E9D12046BDE810405C
:10484000FFF7EFBE7C800008808000081881000818
:104850002DE9F047C6B220480078864239D21F4879
:1048600000244FF0FF3750F82600D0F800901C4885
:1048700050F82600C10708D0810701D4012464271D
:10488000400702D444F0020464274FF00008E00718
:1048900001D0012119E0384603F070F9014600010A
:1048A00013D5D9F81C00804700F001054545F2D02A
:1048B000A846E00704D01DB101213046FFF7D2FE23
:1048C000A007E8D5002DE6D102213046FFF7CAFE49
:1048D000E1E7BDE8F08700007C80000880800008E8
:1048E0005019002070B5174951F82010C9B1CC6893
:1048F000BCB1D4F89C200025AAB1497D491E0A42CA
:1049000002D1012184F89610D4E92623802100F0F9
:10491000FBF9002804D1F4E926121144C4E900157A
:1049200070BD212070BD94F8961049B100231A463D
:10493000802100F0E9F90028F4D184F8965070BD88
:10494000222070BD80800008094910B551F8201060
:10495000CC680021D4E9262300F0D6F9002805D13F
:10496000F4E92601084420600020606010BD0000CA
:104970008080000870B50A4C0546606810B9FBF7E6
:10498000C3FE60604FF47A71884201D1284603E08B
:10499000A5FB0002B0FBF1F0BDE87040FBF776BE6E
:1049A000D0180020704770477047002070470020E3
:1049B000704770470020704770477047704710B5C8
:1049C000FFF7FAFF10BD704770477047704700004F
:1049D0000948007860B10948016821F002010160CE
:1049E0004FF0A040816B41F480318163002070471B
:1049F0004FF0FF3070470000A4180020040800505A
:104A00000948007860B10948016841F0020101607D
:104A10004FF0A040816B21F480318163002070470A
:104A20004FF0FF3070470000A41800200408005029
:104A300008490A6862F300000A68520862F34200FB
:104A40000A680968D20862F3C300090961F31F10FC
:104A500070470000B41800200A4810B5007868B10B
:104A6000094C206840F0010020600520FEF7D2F9D3
:104A7000206820F001002060002010BD4FF0FF30C2
:104A800010BD0000A4180020040800500649097851
:104A900031B106490A6860F30A120A6000207047C3
:104AA0004FF0FF3070470000A418002000080050AD
:104AB0002DE9F04105460324154E08E056F825007F
:104AC000642102F05DFF28B10A20FFF753FF641E46
:104AD000E4B2F3D2BCB1DFF83C80022758F82500DD
:104AE000006840698047040005D00A20FFF742FFB4
:104AF0007F1EFFB2F2D256F8250002F08FFF24B1DC
:104B00002220BDE8F0812320FBE70020F9E7000028
:104B100030190020808000082DE9F04789460546BD
:104B20000324164E09E000BF56F82500642102F068
:104B300027FF28B10A20FFF71DFF641EE4B2F3D25D
:104B4000C4B1DFF83C80022758F825000068416AAC
:104B500048468847040005D00A20FFF70BFF7F1E58
:104B6000FFB2F1D256F8250002F058FF24B12220FE
:104B7000BDE8F0872320FBE70020F9E7301900208B
:104B8000808000082DE9FF5F894601F00F0205468D
:104B9000102101EAD9002C499B4610440B786B4345
:104BA00002EB4302D4B2102802D309782144CCB2DC
:104BB000264F142202EB800057F82510C9680858C8
:104BC00020B14946284600F011F9A0BBDFF88080EB
:104BD000022600BF58F82400642102F0D1FE28B15B
:104BE0000A20FFF7C7FE761EF6B2F3D24EB30326B5
:104BF0004FEA070A5A465AF8250002990068C36A24
:104C0000484698470746801D06280CD2DFE800F08A
:104C10000B0B0B030303761E16F0FF0603D00A20CE
:104C2000FFF7A8FEE6E758F8240002F0F7FE17F1B8
:104C3000020F06D01FB1222004B0BDE8F09F002073
:104C4000FAE72320F8E70000CC8000088080000805
:104C5000303D00202DE9F05F9346894601F00F02B8
:104C60000546102101EAD900244910440B786B4312
:104C700002EB4302D4B2102802D309782144CCB20B
:104C8000DFF87CA0142202EB80005AF82510C968D6
:104C9000085820B14946284600F0A8F838BBDFF88C
:104CA00064800226642158F8240002F069FE28B1CD
:104CB0000A20FFF75FFE761EF6B2F3D2E6B10227B6
:104CC0005AF8250059460068426B4846904706004E
:104CD00005D00A20FFF74EFE7F1EFFB2F0D258F833
:104CE000240002F09BFE16F1020F05D016B122201F
:104CF000BDE8F09F0020FBE72320F9E7CC80000807
:104D000080800008303D00202DE9FF5F884601F0DB
:104D10000F03334A0446102101EAD8001844012742
:104D2000157807FA00F1654303EB4503DDB210285F
:104D300002D312782A44D5B22A4B53F82420D268E1
:104D4000D6680E424AD1142101EB80099A4652F8E6
:104D5000090038B15FEA087040D14146204600F0B2
:104D600045F8A8BBDFF880B0022600BF5BF825003D
:104D7000642102F005FE28B10A20FFF7FBFD761E34
:104D8000F6B2F3D256B35AF82410CA6842F8097042
:104D90005FF002075AF82400DDE902120068836B15
:104DA0004046984706000BD00A20FFF7E3FD7F1E20
:104DB000FFB2EFD25AF824000021C26842F809106D
:104DC0005BF8250002F02AFE16F1020F06D01EB194
:104DD000222004B0BDE8F09F0020FAE72320F8E786
:104DE000CC80000880800008303D00202DE9F05F75
:104DF0008A4601F00F020446102101EADA00254933
:104E000010440B78634302EB4302D5B2102802D35F
:104E100009782944CDB2DFF8808058F82410CA6898
:104E2000142101EB800B52F80B00002820D0DFF892
:104E30006C900226642159F8250002F0A1FD28B1EA
:104E40000A20FFF797FD761EF6B2F3D27EB1022755
:104E500058F824000068016C50468847060009D0C5
:104E60000A20FFF787FD7F1EFFB2F1D208E0232062
:104E7000BDE8F09F58F824000021C26842F80B10EA
:104E800059F8250002F0CAFD0EB12220F0E70020FB
:104E9000EEE70000CC80000880800008303D002054
:104EA0002DE9F04180460E46102001F00F0200EA85
:104EB000D600111815481029047808FB04F302EBFA
:104EC0004302D4B202D300782044C4B2104F02256A
:104ED000642157F8240002F053FD28B10A20FFF79F
:104EE00049FD6D1EEDB2F3D275B10A4951F82800A3
:104EF0000068C16B30468847054657F8240002F029
:104F00008DFD2846BDE8F0810020FBE7CC8000083D
:104F1000303D0020808000082DE9F047894601F0EF
:104F20000F020546102101EAD900254910440B78EB
:104F30006B4302EB4302D4B2102802D30978214418
:104F4000CCB2DFF880A0142202EB80005AF82510C2
:104F5000C968085820B149462846FFF747FF38BBC3
:104F6000DFF86480022600BF58F82400642102F0B4
:104F700007FD28B10A20FFF7FDFC761EF6B2F3D23A
:104F8000DEB102275AF825000068016B48468847C1
:104F9000060005D00A20FFF7EDFC7F1EFFB2F1D21C
:104FA00058F8240002F03AFD16F1020F05D016B1B0
:104FB0002220BDE8F0870020FBE72320F9E700006E
:104FC000CC80000880800008303D0020024951F864
:104FD000200000684068004780800008024951F8BE
:104FE0002000006800680047808000082DE9F04735
:104FF00091468A4605460324164E08E056F82500D9
:10500000642102F0BDFC28B10A20FFF7B3FC641E46
:10501000E4B2F3D2CCB1DFF840800227494658F819
:1050200025000068826850469047040005D00A2099
:10503000FFF7A0FC7F1EFFB2F0D256F8250002F069
:10504000EDFC24B12220BDE8F0872320FBE70020FF
:10505000F9E7000030190020808000082DE9F047B2
:10506000894605460324164E09E000BF56F8250080
:10507000642102F085FC28B10A20FFF77BFC641E46
:10508000E4B2F3D2C4B1DFF83C80022758F825001F
:105090000068016948468847040005D00A20FFF7E8
:1050A00069FC7F1EFFB2F1D256F8250002F0B6FC73
:1050B00024B12220BDE8F0872320FBE70020F9E798
:1050C00030190020808000082DE9F0478946054608
:1050D0000324164E09E000BF56F82500642102F0B3
:1050E0004FFC28B10A20FFF745FC641EE4B2F3D25E
:1050F000C4B1DFF83C80022758F825000068816AB7
:1051000048468847040005D00A20FFF733FC7F1E7D
:10511000FFB2F1D256F8250002F080FC24B1222023
:10512000BDE8F0872320FBE70020F9E730190020D5
:10513000808000082DE9F0470546DC488846007865
:10514000854278D2DFF8689359F82570002F72D025
:10515000FC68002C6FD05FEA48704FF0000632D533
:1051600094F8A000000621D5D4F89C0010B994F85A
:10517000960020B12846FFF7B5FB20B30AE094F86B
:10518000970000B384F897602846FFF7D7FA48B134
:10519000012807D0012200212846FFF75BFDC4F853
:1051A0009C6010E0284602F090FC0CE0284602F0DB
:1051B00084FC40B96078010605D500F07F0161707C
:1051C0002846FFF7A9FC5FEA887045D594F8A0004F
:1051D00001063ED4D4F89C1021B12846FFF7B4FB59
:1051E00050B32EE094F8971059B184F89760284690
:1051F000FFF7C6FA08B1012823D1284602F058FC6F
:105200002AE0C0F34111E1B101291AD110F01F00C9
:1052100017D0012802D0022813D10EE0284600F052
:1052200051F948B9284600F048F928B9284600F055
:1052300046F908B905E04AE00EE0284600F03BF9DF
:10524000F7E7012280212846FFF704FDC4F89C609F
:1052500002E0284602F03EFC5FEAC87037D02846DC
:10526000C84659F82010C968A031FFF72DFF002863
:105270002DD12846FFF7C4FA0121B8B3012863D124
:10528000D4F8A80018B9D4F8AC20002A5CD1B4F83E
:10529000A620F2B1C4F89800D4F8AC00C4F89C0081
:1052A00084F8971094F8A0301B0603D42846FFF723
:1052B0004BFB0AE0904205D27A7D521E104201D18A
:1052C00084F896102846FFF70DFB00283CD1BDE876
:1052D000F08794F8A0000006284603D4BDE8F04704
:1052E00002F0E6BBBDE8F04702F0EFBBB868C4F8D7
:1052F0009800B4F8A6007A8B904202D9C4F89C209A
:1053000001E0C4F89C0094F8A000C0F3411222B15F
:10531000012A7DD0022A17D19BE094F8A1000C2825
:1053200012D2DFE800F00612AF14AF1A34AF3A50D1
:105330005471284601F0B6FF2CE02846FFF742FAE8
:105340002846FFF7CFFAE0B39CE0002100E00121FE
:10535000284602F001F898B994E058F82500C06892
:1053600080B3B0F8A41069BBB0F8A61051BB90F898
:10537000A010C90626D190F8A21041F0800141701A
:105380002846FFF71FFA284602F092FB68E02846FD
:1053900001F064FE0028D0D174E058F82500C06800
:1053A00080B1B0F8A2206AB9B0F8A42052B9B0F820
:1053B000A620012A66D190F8A020D20662D1021D53
:1053C0001EE04AE040E0284602F04EF8C3E758F8F5
:1053D0002520CAB3D068B8B3B0F8A230A3BBB0F8E8
:1053E000A630012B4ED190F8A03003F01F03012B03
:1053F00048D1B0F8A430578ABB4243D252681A440D
:10540000C0E9262199E703E0284602F061F9A2E706
:1054100010F01F0036D0012802D0022832D114E04B
:10542000284600F019F958B9284600F0C1F938B9F2
:10543000284600F00DF918B9284600F00BF918B10C
:105440002846FFF7BFF90BE01CE0284600F0FEF805
:10545000F5E7284601F0CCFE9CE7284602F035FB34
:1054600094F8A00000063FF532AFB4F8A60000287B
:105470003FF42DAF2846FFF767FA0028F8D0012245
:10548000802109E094F8A0000006B4F8A60009D431
:105490000028F4D0012200212846FFF7DBFBC4F8E6
:1054A0009C6014E70028EAD1F4E700007C80000843
:1054B000808000087047002070470020704700205F
:1054C000704700002DE9F0410546184800788542F4
:1054D00026D2174850F82500C6680EB30024DFF81E
:1054E0005480154F19E000BF58F8240098B1017F8F
:1054F000A94210D1B6F8A410407F81420BD196F892
:10550000A100092807D1204601F04AF818B1284621
:1055100002F0CEFA38B1641CE4B238788442E3D3A6
:105520000020BDE8F0810120FBE700007C8000083E
:1055300080800008D0180020848000082DE9F04702
:105540003B4B1B78984271D23A4B53F820C0BCF1C8
:10555000000F6BD0DCF80C40002C67D0B4F8A23000
:10556000DFF8D4901B0A354F354D212B02D0222B6A
:105570005CD131E000263346BA460FE05AF823707A
:1055800057B197F81C80804506D1B4F8A4807F7F7E
:10559000B84506D0761CF6B25B1CDBB22F78BB4256
:1055A000ECD32D78AE4241D09CF81160254D94F893
:1055B000954066B164B155F8200040690860044622
:1055C00059F82300C08820440860092029E064BB02
:1055D00055F820000069F1E70026334613E000BFCC
:1055E00057F823C0BCF1000F0BD09CF81C808045FD
:1055F00007D1B4F8A4809CF81DC0E04507D0761C04
:10560000F6B25B1CDBB295F800C06345E8D328789E
:1056100086420BD059F8234024680C6059F82300C7
:10562000808810600120BDE8F087FFE70020FAE7DE
:105630007C800008808000084C810008D018002081
:105640008480000824190020002070470020704743
:1056500000207047002070472DE9F05F50498046D8
:105660000978884270D24F4951F82870002F6BD0CA
:10567000FC68002C68D000264FF0030A4FF0010BA5
:10568000DFF8249185E0494850F82650002D7ED05F
:10569000297F41457BD1B4F8A410687F814276D13F
:1056A00094F8A1000C2872D2DFE800F071063E5198
:1056B0007171717171234763304600F0DDFE90B364
:1056C000B4F8A200BBEB102F06D1698ED4F89C0071
:1056D000884263D8E86808E0BAEB102F28D1E98E39
:1056E000D4F89C00884259D86869401CC4F89800D6
:1056F0001EE0B4F8A2000221B1EB102F06D1A98E52
:10570000D4F89C00884249D8286908E0BAEB102FE9
:105710003AD1E98ED4F89C0088423FD86869401C91
:10572000C4F8980030E032E0304600F069FE11E045
:105730004046FFF7D7F8C0B129E0B4F8A60018B981
:10574000304600F0CDFE1AE028E0E8B11FE0304618
:1057500000F072FED8B1B868C4F89800D4F89C0084
:105760000128E5D9C4F89CB0E2E7404602F0ADF963
:10577000EBE7B4F8A60088B9304600F0F1FE30B18E
:10578000404602F095F9E0E70120BDE8F09F761C65
:10579000F6B299F800008642FFF475AF0020F4E7F6
:1057A0007C8000088080000884800008D0180020D9
:1057B000002070472DE9F04700F00F0480466FEAA3
:1057C000080040F3C01000F101090D46C2F30A06BB
:1057D0006FF00400032C1CD8B9F1000F05D03B4A30
:1057E00032F81410B14214D304E006F15401B1F5BB
:1057F000207F0ED83648007868B1610001EBD810E0
:10580000344900EB800001EB8007387C30B16FF049
:105810000100BDE8F0874FF0FF30FAE71421384669
:10582000FAF7BAFDFE814FEA0870C00D2A4A01213D
:1058300000F1A040B9F1000F23D000237B74A30531
:1058400043EA85433343C0F80039022D01D0032DCC
:1058500005D1D0F8003943F08053C0F80039D0F8B2
:10586000003943F40043C0F80039D0F80039002B68
:1058700005DAD0F8003943F08043C0F800391068E9
:1058800017E046EA854343F00063C0F8003B022D71
:1058900001D0032D05D1D0F8003B43F08053C0F870
:1058A000003BD0F8003B43F40043C0F8003B1068D5
:1058B0001034A14008431060012D05D14FF0A040E5
:1058C000816941F4004181610020A2E7BC7F0008AA
:1058D000A4180020483B00201C08005000F00F02D4
:1058E000510001EBD0111B4B01EB810110B503EB13
:1058F00081014B68CC89A34201D9C98901E049687B
:1059000089B20007C40D04F1A04422B141F4002083
:10591000C4F8100B03E01048014310480160D4F8AC
:10592000000BC0F3814001280CD100F0B7FCC00788
:10593000D4F8000B02D040F0805001E040F000505D
:10594000C4F8000BD4F8000B40F00440C4F8000B7E
:1059500010BD0000483B002000000860100B005004
:1059600070B5024600F00F00032802D96FF0040062
:1059700070BD464B4FF0FF351B78A3B3430003EBDC
:10598000D213434C03EB830304EB83031C7C0CB165
:10599000680070BDD4431207D20D44F3C01402F165
:1059A000A042641C91B33B4E94B1D2F80019002977
:1059B00005DA0120D874D2F8000930434EE0D2F85D
:1059C000001941F40011C2F8001900F043FC5AE03C
:1059D00031490A6842F400720A60304A4FF0A0432D
:1059E0001268920904E001E0521E01D2284670BDFF
:1059F0005C692406F8D5400100F1A040D0F8002BE6
:105A0000002AD0F8002B02DA324302E008E042F428
:105A10000012C0F8002B086840F48060086032E093
:105A2000002058749874E4B1D2F80009002805DA0F
:105A3000D2F8000940F08040C2F80009D2F800090D
:105A4000C0F38140012805D9D2F8000940F0805008
:105A5000C2F80009D2F8000920F40010C2F80009C9
:105A600011E0D2F8000BC0F38140012805D9D2F82B
:105A7000000B40F08050C2F8000BD2F8000B20F46D
:105A80000010C2F8000B002070BD0000A418002018
:105A9000483B00200000204004080050CC180020A3
:105AA0002DE9F0410E4E0D460746002456F824001D
:105AB000816971B1017FB9420BD1817F41F08001D1
:105AC000A94202D0C07FA84203D12946204600F057
:105AD0009FFD641C14F0FF04E8D0BDE8F0810000D5
